:100000000C9459040C9481040C9481040C94A7154D
:100010000C9482150C945D150C9481040C9481044D
:100020000C9481040C9481040C9481040C9481043C
:100030000C9481040C9481040C9481040C9481042C
:100040000C94BB140C9481040C942B150C94051582
:100050000C9481040C9481040C9481040C9481040C
:100060000C949C130C948104AEB08180A1A6A83F8F
:10007000AD8B32C8D300D580D91FDA12DB40AF0078
:10008000000000230026002900556E6B6E6F776E0E
:100090000052656C6179004F6C6564004F6C65645B
:1000A00020202864656661756C7429004B65797041
:1000B00061642F494F004B65797061642F494F008F
:1000C0004B65797061642F494F004B6579706164AD
:1000D000202864656661756C742900200030780002
:1000E0002B2D2D2D2D2D2D2D2D2D2D2D2D2D2D2D42
:1000F0002D2D2D2D2D2B007C20202020456C65637F
:1001000074726F7363617065202020207C000A0A7E
:100110002B2D2D2D2D2D2D2D2D2D2D2D2D2D2D2D11
:100120002D2D2D2D2D2B005375636365737366750F
:100130006C006800178040020A0A4F4C4544206951
:100140006E6974206F6E20416464726573733A2027
:1001500030780000000000240027002A0000000082
:1001600000250028002B00040404040404040402F5
:100170000202020202030303030303010204081044
:100180002040800102040810200102040810200011
:100190000000080002010000030407000000000046
:1001A00000000000030C0F30333C3FC0C3CCCFF045
:1001B000F3FCFF00000507206000000000000000C5
:1001C0005F00000007000700147F147F14242A7FBB
:1001D0002A12231308646236495620500008070388
:1001E00000001C2241000041221C002A1C7F1C2A06
:1001F00008083E0808008070300008080808080059
:100200000060600020100804023E5149453E004253
:100210007F400072494949462141494D3318141223
:100220007F1027454545393C4A494931412111094B
:10023000073649494936464949291E00001400003D
:100240000040340000000814224114141414140057
:100250004122140802015909063E415D594E7C12A3
:1002600011127C7F494949363E414141227F41413B
:10027000413E7F494949417F090909013E414151B8
:10028000737F0808087F00417F41002040413F0103
:100290007F081422417F404040407F021C027F7F44
:1002A0000408107F3E4141413E7F090909063E4155
:1002B00051215E7F09192946264949493203017FA8
:1002C00001033F4040403F1F2040201F3F40384037
:1002D0003F631408146303047804036159494D43D0
:1002E000007F4141410204081020004141417F0448
:1002F000020102044040404040000307080020542F
:100300005478407F2844443838444444283844448E
:10031000287F385454541800087E090218A4A49C5D
:10032000787F0804047800447D40002040403D0070
:100330007F1028440000417F40007C047804787CD2
:10034000080404783844444438FC18242418182439
:100350002418FC7C08040408485454542404043F22
:1003600044243C4040207C1C2040201C3C40304029
:100370003C44281028444C9090907C4464544C4455
:1003800000083641000000770000004136080002F6
:10039000010204023C2623263C1C620A0C20600257
:1003A000020508070D0802040405070204020607F7
:1003B0000607070707070707070202070707050AD7
:1003C00007070708060608080406070709080907BB
:1003D0000908070808070C070806040604080903AB
:1003E0000606060606050606020407020A060606B3
:1003F0000605050506060A060605060206080900A2
:100400000000007E7E303007070007070000000074
:1004100000C0D8F8DED8F8DE180030000030000048
:1004200000387C64FF64E4C8102020F02030103CC9
:100430007E427E3CC02018E6F010F0E00000000094
:10044000300000001030203010DCFE227EDC8060A6
:1004500020103020202010302007070000F8FE0771
:10046000011070E0800107FEF880E07010120C3F70
:100470000C120000000000202020FC2020200000A2
:1004800000100000000000F070202020200000007C
:1004900000000030300080E07C1F03C0F03000001E
:1004A00000FCFE020202FEFC10302020203010046E
:1004B00004FEFE0000202030302020040682C262AC
:1004C0003E1C203030202020200406222222FEDC88
:1004D00010302020203010C0A09884FEFE80000044
:1004E0000000303000001E1E1212F2E210302020F8
:1004F000203010F8FC161212F2E0103020202030CC
:1005000010020282E27A1E0600203010000000DC99
:10051000FE222222FEDC103020202030103C7E42C1
:100520004242FEFC00202020301000181830301805
:1005300018F070606090900808040000000010102F
:100540002090909090909090000000000000000497
:100550000808909060602010100000000004627293
:100560001E0C0030300000F00CF4FA0AFAFA040C09
:10057000F00030205050505010100080F8FE86FEE1
:10058000F88030300000003030FEFE22223EFCC0F9
:1005900030302020203010F8FC0602020204001047
:1005A0003020202010FEFE02020206FCF83030202F
:1005B0002020301000FEFE22222222303020202077
:1005C00020FEFE22222222303000000000F8FC062D
:1005D000024242C2C40010302020203030FEFE20F3
:1005E000202020FEFE303000000000303002FEFEF1
:1005F000022030302000020202FEFE2020202030A7
:1006000010FEFE70D88C060230300000103020FE44
:10061000FE000000000030302020202020FE0E3C94
:10062000F0C0300CFEFE300000000000003030FE54
:10063000061C38E0C000FE3000000000103030F82A
:10064000FC0602020206FCF80010302020203010C8
:1006500000FEFE4242427E3C30300000000000F8C6
:10066000FC0602020206FCF80010302060E0B090A8
:1006700080FEFE2262E2BE1C00303000000010301E
:10068000201C3E322262E2C41020202020301002C2
:100690000202FEFE0202020000003030000000FEF6
:1006A000FE00000000FEFE10302020202030100E42
:1006B0007EF080F07E0E000030303000000E7EF0C4
:1006C00080E03E3EE080F07E0E0000303000000012
:1006D0000030300000068EF870F88E0630300000D2
:1006E000003030060E18F0F0180E06000000303012
:1006F00000000002C2F23E0E02303020202020FF17
:10070000FF0101F0F08080031F7CE080000000000A
:1007100030F0C00101FFFF8080F0F010180C0606D9
:100720000C18100000000000000000000000000095
:100730000000000080808080808080808001030233
:10074000000000C0E82828F8F0103020203030FFEA
:10075000FF0808F8F0303020203010F0F8080808C2
:1007600010103020202010F0F80808FFFF10302073
:10077000203030F0F84848787010302020201008E1
:10078000FEFF09090030300000F0F80808F8F81002
:10079000B0A0A0F070FFFF0808F8F0303000003083
:1007A00030FBFB30300008FBFB8080F070FFFF6007
:1007B000F098080030300000103020FFFF3030F893
:1007C000F81008F8F01008F8F03030000030300071
:1007D000003030F8F80808F8F0303000003030F021
:1007E000F80808F8F0103020203010F8F80808F861
:1007F000F0F0F020203010F0F80808F8F810302061
:1008000020F0F0F8F8101818303000000030784868
:10081000C888202020301008FEFE08080010302074
:1008200020F8F80000F8F810302020303038F8C0F8
:10083000C0F83800103030100078F880C03838C068
:1008400080F8780030300000000030300018B8E048
:10085000E0B81830300000303038F8C0C0F8380048
:1008600090F070100008C8E8781830302020202060
:1008700020FEDF0101000070F08080FFFFF0F0013A
:1008800001DFFE20208080F0700000E0101020408A
:100890008080700000000000000000FE02020202E2
:1008A000020202FE30202020202020203000E71508
:1008B000611C11241FBECFEFD8E0DEBFCDBF25E005
:1008C000A6E0B2E001C01D92AF32B207E1F712E03C
:1008D000A0E0B1E0EAECF4E402C005900D92A6308D
:1008E000B107D9F714E0C8E5D4E004C02197FE01B0
:1008F0000E94861DC735D107C9F70E94ED160C94DA
:1009000058220C94000008950895CF93DF93EC01D2
:100910008D85882329F081508D87DF91CF910895AF
:100920009C818E819817C8F788896827E881F981AA
:100930000084F185E02D42E0CE0109958C818F5F26
:100940008C83EBCFDC011E96ED91FC918491319666
:10095000E491982F8E2F0895DC01ED91FC91008495
:10096000F185E02D40E00994FC012781269526952C
:100970002695621738F465832385620F6770606B74
:100980000C94AC0408950F931F93CF93FC01268120
:10099000621798F4C62F8C0164836085C60F6C2F94
:1009A0006F700E94AC046C2F62956F706061C8011B
:1009B000CF911F910F910C94AC04CF911F910F9187
:1009C0000895CF92DF92EF92FF920F931F93CF93F0
:1009D000DF93EC01F62EC42ED22E1D868F818695D4
:1009E00086958695081710F00FEF080F1D2D6F2DB7
:1009F000CE01011788F00E94C304612FCE010E942E
:100A0000B404EF2CCE1430F06889CE010E94850426
:100A1000E394F8CF1F5FEBCF0E94C3046D2DCE018E
:100A2000DF91CF911F910F91FF90EF90DF90CF90CA
:100A30000C94B4040F931092D0041092CF0460E48D
:100A400085EC94E00E94AC040091CC0406950695D8
:100A5000069501504091CB04415020E060E085ECC8
:100A600094E00E94E1040F9108950F93DC01159624
:100A70002C9115971E96ED91FC911F9700E03097F1
:100A800079F03396E491F0E0379683E0F595E795B9
:100A90008A95E1F751960C9151970E9F002D1124E4
:100AA000EFEFE20F0E0F16964C91169741501496E9
:100AB0006C911497CD010E94E1040F9108952F923B
:100AC0003F924F925F926F927F928F929F92AF92DE
:100AD000BF92CF92DF92EF92FF920F931F93CF932B
:100AE000DF9300D000D000D0CDB7DEB7FC01068583
:100AF00017850115110509F441C19E838D83F80105
:100B0000329664903196A490EA2CF12CF7E0EF0E27
:100B1000F11C23E0F594E7942A95E1F7E982F801C6
:100B2000349684913196E4916D3001F560E08D81C9
:100B30009E810E94C30481E090E026960FB6F8944F
:100B4000DEBF0FBECDBFDF91CF911F910F91FF9000
:100B5000EF90DF90CF90BF90AF909F908F907F905D
:100B60006F905F904F903F902F9008956A30D1F52D
:100B700060E08D819E810E94C304ED81FE818189A8
:100B80008E9DE02C112465816E0D8485882349F0AB
:100B900097819695969596958E2D891B860F18169A
:100BA0002CF08D819E810E94B404C5CFED81FE8121
:100BB0002385820F877083879E199583CF010E94BA
:100BC0003505ED81FE818485813009F0B4CF6385E0
:100BD000660F660F660F6F7362876064CF010E94B5
:100BE000AC04A9CF681708F4C9C0CE2ED12C960149
:100BF000280F311D621713060CF0C0C00A5F1F4F8B
:100C0000B62EB81AED81FE8191858189989F802D3D
:100C100011248C83CF010E94A204029708F06FC0B8
:100C20006E9CC0016F9C900D1124B89E6001B99E0E
:100C3000D00C11240C0D1D1D512CED81FE81F48171
:100C4000FA83ED81FE812580F585FB83862C912C2E
:100C5000AA24A394B12C312C8981381608F08CC0B9
:100C6000412CED81FE818189481608F07EC08B8180
:100C70008587311002C0442069F0ED81FE81D58066
:100C8000D3946A81CF010E94C3046D2D8D819E8112
:100C90000E94B404D12CC12CC61408F059C0F8012C
:100CA000EC0DFD1D7490552061F0EA14FB0449F42D
:100CB000E72DF0E0052C02C0F595E7950A94E2F7E0
:100CC0007E2EED81FE818189823081F4442009F4F9
:100CD0003BC072948FE07822E72DF0E0ED55FE4F97
:100CE0007490672D8D819E810E948504672D8D8172
:100CF0009E810E9485048FEFC81AD80ACDCFEA2DB5
:100D0000E77088E0582E5E1AE11101C0512CF801FD
:100D1000612C90E080E06B1431F02491820F911DE2
:100D200063943196F8CF600E712E711CF3016490BC
:100D3000E89EF001E99EF00DF89EF00D1124CE0E14
:100D4000DF1E0C0D1D1D79CFF72DFF707F2EC4CF38
:100D5000D12CEC81DE1639F060E08D819E810E94FD
:100D60008504D394F6CF43947CCF3394080D191D9A
:100D7000FFEFAF1ABF0A70CF622D13CF90E080E073
:100D8000DCCE20918302260F3327331F2132310519
:100D9000ECF42091D202FC0190E080E0243069F074
:100DA00082E00895A09183022191AC014D595D4FDD
:100DB000A40FB52FB11D2C930196861798F380913F
:100DC0008302680F6093830280E0089581E00895B4
:100DD0000895E091AB028091AA02E81730F4F0E0A8
:100DE000EE5BFD4F808190E008958FEF9FEF0895B7
:100DF0009091AB028091AA022FEF3FEF981748F431
:100E0000E92FF0E0EE5BFD4F208130E09F5F909393
:100E1000AB02C90108958091AA029091AB02891B8F
:100E2000990B0895CF92DF92EF92FF920F931F9349
:100E3000CF93DF937C01CB018A012091D80222233A
:100E400089F0EB016B01C40ED51ECC15DD0569F0F0
:100E50006991D701ED91FC910190F081E02DC701DE
:100E60000995F3CF642F0E94C106C801DF91CF918D
:100E70001F910F91FF90EF90DF90CF900895CF9347
:100E8000DF931F92CDB7DEB769832091D80222236A
:100E9000F9F02091FB02203258F021E030E0FC0113
:100EA0003383228390E080E00F90DF91CF9108950B
:100EB0008091D902E82FF0E0E652FD4F99819083AE
:100EC0008F5F8093D9028093FB0281E090E0ECCFAA
:100ED00061E0CE0101960E94C106F7CFFC01538D5F
:100EE000448D252F30E0842F90E0821B930B541704
:100EF00010F0CF96089501970895FC01918D828D91
:100F0000981761F0A28DAE0FBF2FB11D5D968C9129
:100F1000928D9F5F9F73928F90E008958FEF9FEF68
:100F20000895FC01918D828D981731F0828DE80F24
:100F3000F11D858D90E008958FEF9FEF0895FC01DE
:100F4000918D228D892F90E0805C9F4F821B9109AB
:100F50008F7399270895FC01A48DA80FB92FB11D97
:100F6000A35ABF4F2C91848D90E001968F739927DF
:100F7000848FA689B7892C93A089B1898C918370BD
:100F800080648C93938D848D981306C00288F389B6
:100F9000E02D80818F7D80830895EF92FF920F93E3
:100FA0001F93CF93DF93EC0181E0888F9B8D8C8D15
:100FB00098131AC0E889F989808185FF15C09FB709
:100FC000F894EE89FF896083E889F98980818370CC
:100FD000806480839FBF81E090E0DF91CF911F917B
:100FE0000F91FF90EF900895F62E0B8D10E00F5F9C
:100FF0001F4F0F731127E02E8C8D8E110CC00FB672
:1010000007FCFACFE889F989808185FFF5CFCE0109
:101010000E94AB07F1CFEB8DEC0FFD2FF11DE35AD2
:10102000FF4FF0829FB7F8940B8FEA89FB8980818C
:101030008062CFCFCF93DF93EC01888D8823B9F006
:10104000AA89BB89E889F9898C9185FD03C08081D3
:1010500086FD0DC00FB607FCF7CF8C9185FFF2CF50
:10106000808185FFEDCFCE010E94AB07E9CFDF91F4
:10107000CF91089588E093E00E949F0721E0892B9B
:1010800009F420E0822F089580E090E0892B29F078
:101090000E943A0881110C940000089590E0FC0130
:1010A000E157FE4F2491FC01E558FE4F3491FC01BD
:1010B000E959FE4FE491EE23C9F0222339F02330A1
:1010C00001F1A8F4213019F1223029F1F0E0EE0FFE
:1010D000FF1FE35AFE4FA591B4918FB7F894EC919E
:1010E000611126C030953E233C938FBF0895273071
:1010F000A9F02830C9F0243049F7809180008F7D15
:1011000003C0809180008F7780938000DFCF84B50B
:101110008F7784BDDBCF84B58F7DFBCF8091B0000E
:101120008F778093B000D2CF8091B0008F7DF9CFC0
:101130003E2BDACF1092D20281E08093D10210923E
:10114000AC0261E082E10E944E0861E083E10E940E
:101150004E08E9EBF0E080818E7F808380818D7F77
:10116000808388E48093B80085E48093BC00089570
:101170001092AB021092AA021092D9021092FB02B6
:101180000E949A0883E894E09093A9028093A802B1
:1011900084E894E09093A7028093A6020895CF93E9
:1011A000DF9391E0909362028823B9F0C091B80078
:1011B000D091BA008091BC008A7B8093BC0060E033
:1011C00082E10E944E0860E083E10E944E080E9486
:1011D0009A08D093BA00C093B800DF91CF910895D8
:1011E0003FB7F89480913E0290913F02A091400257
:1011F000B091410226B5A89B05C02F3F19F001967A
:10120000A11DB11D3FBFBA2FA92F982F8827BC0160
:10121000CD01620F711D811D911D42E0660F771F88
:10122000881F991F4A95D1F708958F929F92AF9288
:10123000BF92CF92DF92EF92FF920F931F93CF93C3
:10124000DF93D091FB02D13208F0D7C0182FC091A4
:10125000FA020E94F0086B017C018091D202811198
:101260006BC082E08093D2021093D1028FEF809303
:10127000D0021092CF02D093CE02AAEDB2E0EEEAF5
:10128000F2E080E0D81391C01092AD028091AD02DF
:10129000CC0FC82BC093AD028091AC02813009F015
:1012A00088C01092AC020E94F0086B017C01809112
:1012B000AD028093BB008091D4029091D502A091A1
:1012C000D602B091D702892B8A2B8B2BA1F00E94DA
:1012D000F0080091D4021091D5022091D6023091ED
:1012E000D7026C197D098E099F0906171707280771
:1012F000390708F442C08091BC0083FDD8CF85EC4B
:101300008093BC000E94F0086B017C018091D202A6
:10131000823009F450C08091D0028F3F09F46FC031
:101320008091D002803209F46CC08091D002803369
:1013300009F469C084E026C08091D4029091D5025E
:10134000A091D602B091D702892B8A2B8B2B09F45E
:1013500084CF0E94F0088090D4029090D502A09093
:10136000D602B090D7026C197D098E099F098616A6
:101370009706A806B90608F070CF8091D3020E94A4
:10138000CF0885E01092D9021092FB021092D80289
:10139000DF91CF911F910F91FF90EF90DF90CF9051
:1013A000BF90AF909F908F9008959D9191938F5F84
:1013B00069CF85EEA5CF8091D4029091D502A091FE
:1013C000D602B091D702892B8A2B8B2B09F49ECFA2
:1013D0000E94F0080091D4021091D5022091D6020B
:1013E0003091D7026C197D098E099F0906171707DE
:1013F0002807390708F08ACFC0CF81E0C3CF80E04B
:10140000C1CF82E0BFCF83E0BDCF0F931F93CF93B7
:10141000DF93EC01062F142F8B89813120F4882370
:1014200031F0411104C081E00E9415091B8A8B89AB
:10143000811112C08A8991E09093D8028093FA02B8
:101440001092D9021092FB0260E4111101C060E019
:101450008CEF92E00E943F07602F8CEF92E00E9499
:101460003F07123041F48B898F5F8B8BDF91CF91D7
:101470001F910F91089581E00E9415091B8AF6CFF4
:101480008F929F92AF92BF92CF92DF92EF92FF9294
:101490006B017C010E94F0084B015C01C114D10476
:1014A000E104F104B9F00E94F008681979098A0989
:1014B0009B09683E73408105910580F321E0C21AC3
:1014C000D108E108F10888EE880E83E0981EA11C7F
:1014D000B11CE4CFFF90EF90DF90CF90BF90AF9022
:1014E0009F908F9008952FB7F89460913A02709171
:1014F0003B0280913C0290913D022FBF08950895D8
:10150000DB0114964D915C9115976D917C91DC01F6
:10151000ED91FC910280F381E02D0994CF93DF934C
:10152000EC01BC0185EC94E00E94800ABE0188E0D9
:1015300093E00E94800A88E093E0DF91CF910C94C1
:101540001A08EF92FF920F931F93CF93DF938C01B2
:101550007B01D0E0C0E0F701EC0FFD1F6491662332
:1015600061F0D801ED91FC910190F081E02DC8016E
:101570000995892B11F02196EECFCE01DF91CF9105
:101580001F910F91FF90EF900895AF92BF92CF926D
:10159000DF92EF92FF920F931F93CF93DF936C0133
:1015A0007B018B01040F151FEB015E01AE18BF0814
:1015B000C017D10759F06991D601ED91FC910190C6
:1015C000F081E02DC6010995892B79F7C501DF91DE
:1015D000CF911F910F91FF90EF90DF90CF90BF9030
:1015E000AF90089590E080E00895FC0191816281C0
:1015F0008081238131E03093D8022093FA02109247
:10160000D9021092FB0260956923682B8CEF92E05F
:101610000E943F0781E00C94150921E030E001C0F1
:10162000220F6A95EAF7FC013081442321F0232B35
:1016300020830C94F50A20952323FACF90E0FC0137
:10164000EE0FFF1FED57FF4FA591B4912C91FC01B8
:10165000EA5CFD4F30812083880F991FFC01E05E1A
:10166000FE4F0190F081E02D8081089588E199E29C
:101670000FB6F894A895809360000FBE9093600019
:1016800008958F929F92AF92BF92CF92DF92EF9286
:10169000FF920F931F93CF938C01FC018181848370
:1016A000C3810E94F0086B017C018091D2028111FC
:1016B00064C081E08093D2028093D1029FEF909327
:1016C000D0021092CF021092CE028093AD02809190
:1016D000AD02CC0FC82BC093AD028091AC0281301B
:1016E00009F078C01092AC020E94F0086B017C01F6
:1016F0008091AD028093BB008091D4029091D5027D
:10170000A091D602B091D702892B8A2B8B2BA1F006
:101710000E94F0088090D4029090D502A090D6024A
:10172000B090D7026C197D098E099F09861697061D
:10173000A806B90608F442C08091BC0083FDD8CF4A
:1017400085EC8093BC000E94F0086B017C018091C5
:10175000D202813009F440C08091CF0281115EC075
:101760008091CF02AEEAB2E0E2E4F2E090E09817B6
:1017700051F12D9121939F5FFACF8091D4029091E6
:10178000D502A091D602B091D702892B8A2B8B2B40
:1017900009F48BCF0E94F0088090D4029090D5027B
:1017A000A090D602B090D7026C197D098E099F09CE
:1017B00086169706A806B90608F077CF8091D3025F
:1017C0000E94CF0880E01092AB028093AA028111A0
:1017D00027C0FFCF85EEB5CF8091D4029091D5027E
:1017E000A091D602B091D702892B8A2B8B2B09F4BA
:1017F000AECF0E94F0088090D4029090D502A090C5
:10180000D602B090D7026C197D098E099F09861601
:101810009706A806B90608F09ACFD0CF81E0A2CFEC
:101820008CEF92E00E94F806F8018183CF911F911E
:101830000F91FF90EF90DF90CF90BF90AF909F906F
:101840008F900895AF92BF92CF92DF92EF92FF9266
:101850000F931F93CF93DF9386ECA82E83E0B82ECF
:1018600010E000E0D0E0C0E0CC24C394D12C809103
:10187000C4039091C50308171907F4F4F501E1902A
:10188000F1905F0185EA93E00E94410B8091A603ED
:1018900090E00E2C02C0959587950A94E2F780FDA2
:1018A00008C0C60102C0880F991FEA94E2F7C80F6A
:1018B000D91F0F5F1F4FDBCFCE01DF91CF911F915B
:1018C0000F91FF90EF90DF90CF90BF90AF90089571
:1018D000FB0101900020E9F73197AF01461B570B40
:1018E000DC01ED91FC910280F381E02D09948F924F
:1018F0009F92AF92BF920F931F93CF93DF93CDB779
:10190000DEB7A1970FB6F894DEBF0FBECDBF19A208
:10191000423008F44AE08E010F5D1F4F842E912C57
:10192000B12CA12CA50194010E94641DE62FB901E0
:10193000CA01EA3004F5E05DD801EE938D01232B56
:10194000242B252B79F790E080E0109729F0BD013A
:1019500088E093E00E94680CA1960FB6F894DEBF71
:101960000FBECDBFDF91CF911F910F91BF90AF9070
:101970009F908F900895E95CDFCFCF92DF92EF9236
:10198000FF92CF93DF936B017C016DE288E093E0DF
:101990000E94CD07EC0166277727CB016C197D09E2
:1019A0008E099F094AE00E94770C8C0F9D1FDF91E2
:1019B000CF91FF90EF90DF90CF9008956CE771E0AA
:1019C0000C94680C0F931F93CF93DF938C01D0E09E
:1019D000C0E06115710519F00E94680CEC01C801A6
:1019E0000E94DE0C8C0F9D1FDF91CF911F910F91F4
:1019F00008950F931F93CF93DF93EC010E94800A09
:101A00008C01CE010E94DE0C800F911FDF91CF91DF
:101A10001F910F910895CF93DF93EB0162E0680F60
:101A200085EC94E00E94B40485EC94E00E943505B6
:101A3000BE0185EC94E0DF91CF910C94F90CCF932B
:101A4000DF93EC01BC0185EC94E00E94F90CBE012F
:101A500088E093E00E94F90C88E093E0DF91CF9159
:101A60000C941A080F931F93CF93DF93EC010E94FD
:101A7000A10A8C01CE010E94DE0C800F911FDF9124
:101A8000CF911F910F910895A0E8B4E00D90002030
:101A9000E9F7FC0101900020E9F73197E81BF90B09
:101AA000EA0FFB1FEF57F440E134F10568F4BC0185
:101AB00080E894E00E94A51F6DE771E080E894E063
:101AC0000E94A51F81E0089580E008953F924F9203
:101AD0005F926F927F928F929F92AF92BF92CF92BE
:101AE000DF92EF92FF920F931F93CF93DF93CDB7C7
:101AF000DEB763970FB6F894DEBF0FBECDBF7C0193
:101B000061E070E080E090E00E94400A1092800462
:101B10001A821982FE0133968EE0DF011D928A95AA
:101B2000E9F76091FF0470910005CE0101960E94D3
:101B3000B01F1A8A198A1B8A1F9284E08F938FE73D
:101B400091E09F938F938E010F5E1F4F1F930F9312
:101B50000E94B71FB801CE0101960E94A51FCE01B9
:101B600001960E94440D0F900F900F900F900F90D0
:101B70000F90F7018081882309F40AC1C7010E94F0
:101B8000440DF82E81111FC062E871E088E093E0F7
:101B90000E94E20C8F2D63960FB6F894DEBF0FBE45
:101BA000CDBFDF91CF911F910F91FF90EF90DF900C
:101BB000CF90BF90AF909F908F907F906F905F90ED
:101BC0004F903F90089540E2A42EB12C50E4852E12
:101BD00054E0952E60E4E62E3324339461E08EE0E9
:101BE0000E944E0880913A0490913B048230910506
:101BF00038F0880F991F880F991F05970197F1F703
:101C000060E874E088E093E00E94680C6DEE74E098
:101C100088E093E00E94F90C88E093E00E94DE0CDB
:101C200088E093E00E941A0880913A0490913B0466
:101C30008230910538F0880F991F880F991F0597FA
:101C40000197F1F760E08EE00E944E08D401EE2D7E
:101C50001D92EA95E9F70E94730A2B013C0110E0FE
:101C600000E0D12CC12C0E94730A64197509860901
:101C7000970920913C0430913D0440913E045091DD
:101C80003F04621773078407950790F5F0E4CF16B9
:101C9000D10471F188E093E00E949F07892B19F32A
:101CA00088E093E00E947D07F601ED5EFB4F85A77B
:101CB0002091F1043091F20402171307A0F520914E
:101CC000ED043091EE042115310569F1200F311F2B
:101CD000D9019C91891329C00F5F1F4F0430110552
:101CE00031F516A69092DA048092D9041092C004BD
:101CF0006091D9047091DA0488E093E00E94E20CCC
:101D00004091F7045091F8046091D9047091DA047D
:101D10008091F3049091F4040E948F1F892B59F451
:101D20001092800437CF90E0D5CF10E000E0BFEFF5
:101D3000CB1ADB0A98CF8091C0046DE771E088234D
:101D4000E1F090E080E00E94AD1C9093DA04809373
:101D5000D9048091D9049091DA04892B49F6A89589
:101D600065E070E080E090E00E94400AE1E0AE1A99
:101D7000B10809F033CFF12C0DCF80E494E00E943C
:101D8000AD1C9093DA048093D9043092C004E1CF63
:101D9000FF24F394FFCEAF92BF92CF92DF92EF92E7
:101DA000FF920F931F93CF93DF93CDB7DEB7E697E4
:101DB0000FB6F894DEBF0FBECDBF5C016B011A8277
:101DC0001982FE0133968EE2DF011D928A95E9F7B2
:101DD0001DAA1CAA1EAA1F921F928FE791E09F9333
:101DE0008F938E010C5C1F4F1F930F930E94B71FA0
:101DF00060910B0570910C05CE0101960E94B01FF9
:101E0000B801CE0101960E94A51F6091F90470915E
:101E1000FA04CE0101960E94A51F75010F900F9044
:101E20000F900F900F900F9010E000E084E6A82E26
:101E3000B12CF701219131917F012C9DC0012D9D85
:101E4000900D3C9D900D1124B5010E94501DCB01B9
:101E50004AE0BE016F5C7F4F0E94E41CBE016F5CD4
:101E60007F4FCE0101960E94A51F0230110531F06F
:101E700064EB71E0CE0101960E94A51F0F5F1F4F1A
:101E800003301105B1F6CE0101960E94660DE6966B
:101E90000FB6F894DEBF0FBECDBFDF91CF911F917B
:101EA0000F91FF90EF90DF90CF90BF90AF9008958B
:101EB0004F925F926F927F928F929F92AF92BF925A
:101EC000CF92DF92EF92FF920F931F93CF93DF9306
:101ED000CDB7DEB7EB970FB6F894DEBF0FBECDBF20
:101EE0004C015B012A0139011A821982FE013396E5
:101EF0008EE2DF011D928A95E9F71AAE19AE1BAE8C
:101F00001F9285E08F938FE791E09F938F937E01DF
:101F1000B9E3EB0EF11CFF92EF920E94B71F6091A4
:101F20000B0570910C05CE0101960E94B01FB70100
:101F3000CE0101960E94A51F6091F9047091FA04E8
:101F4000CE0101960E94A51F4AE0BE016F5C7F4F43
:101F500081E090E00E94E41CBE016F5C7F4FCE01E7
:101F600001960E94A51F64EB71E0CE0101960E94CC
:101F7000A51F64010F900F900F900F900F900F907E
:101F8000F12CE12C94E6892E912CF60121913191CE
:101F90006F012A9DC0012B9D900D3A9D900D11243B
:101FA000B4010E94501DCB014AE0BE016A5C7F4F24
:101FB0000E94E41CBE016A5C7F4FCE0101960E9424
:101FC000A51FF2E0EF16F10431F064EB71E0CE01F1
:101FD00001960E94A51F8FEFE81AF80AA3E0EA16FF
:101FE000F10499F664EB71E0CE0101960E94A51F01
:101FF0006201F12CE12C84E6A82EB12CF60121918E
:1020000031916F01269DC001279D900D369D900D49
:102010001124B5010E94501DCB014AE0BE016A5C4B
:102020007F4F0E94E41CBE016A5C7F4FCE01019687
:102030000E94A51FF2E0EF16F10431F064EB71E0AD
:10204000CE0101960E94A51F8FEFE81AF80AA3E0BF
:10205000EA16F10499F664EB71E0CE0101960E9454
:10206000A51F4AE0BE016F5C7F4FC8010E94E41CBF
:10207000BE016F5C7F4FCE0101960E94A51FCE016D
:1020800001960E94660DEB960FB6F894DEBF0FBE68
:10209000CDBFDF91CF911F910F91FF90EF90DF9017
:1020A000CF90BF90AF909F908F907F906F905F90F8
:1020B0004F9008954F925F926F927F928F929F926E
:1020C000AF92BF92CF92DF92EF92FF920F931F9346
:1020D000CF93DF93CDB7DEB7EB970FB6F894DEBFA3
:1020E0000FBECDBF2C016B017A0159011A821982F2
:1020F000FE0133968EE2DF011D928A95E9F71AAE52
:1021000019AE1BAE1F9283E08F938FE791E09F93F0
:102110008F938E01075C1F4F1F930F930E94B71F71
:1021200060910B0570910C05CE0101960E94B01FC5
:10213000B801CE0101960E94A51F6091F90470912B
:10214000FA04CE0101960E94A51F4AE0BE016F5C11
:102150007F4F81E090E00E94E41CBE016F5C7F4FE6
:10216000CE0101960E94A51F6091F9047091FA04B6
:10217000CE0101960E94A51F84E4682E81E0782E8E
:102180000F900F900F900F900F900F9010E000E0C5
:1021900094E6892E912CF301219131913F012A9DE2
:1021A000C0012B9D900D3A9D900D1124B4010E9409
:1021B000501DCB014AE0BE016A5C7F4F0E94E41CC7
:1021C000BE016A5C7F4FCE0101960E94A51F0230BE
:1021D000110531F064EB71E0CE0101960E94A51F5C
:1021E0000F5F1F4F03301105B1F664EB71E0CE01B4
:1021F00001960E94A51F520110E000E04AE0BE01D6
:102200006A5C7F4FD5018D919D915D010E94E41C18
:10221000BE016A5C7F4FCE0101960E94A51F02306D
:10222000110531F064EB71E0CE0101960E94A51F0B
:102230000F5F1F4F0330110509F764EB71E0CE010A
:1022400001960E94A51F4AE0BE016F5C7F4FC60148
:102250000E94E41CBE016F5C7F4FCE0101960E947C
:10226000A51F64EB71E0CE0101960E94A51F4AE014
:10227000BE016F5C7F4FC7010E94E41CBE016F5C12
:102280007F4FCE0101960E94A51FCE0101960E94AC
:10229000660DEB960FB6F894DEBF0FBECDBFDF9193
:1022A000CF911F910F91FF90EF90DF90CF90BF9053
:1022B000AF909F908F907F906F905F904F90089518
:1022C00085ED8093BC008091D4029091D502A091BD
:1022D000D602B091D7020796A11DB11D23E0B69595
:1022E000A795979587952A95D1F72091BC0024FD55
:1022F00003C01092D20208954091D4025091D502A9
:102300006091D6027091D702452B462B472B69F37B
:102310000097A105B10541F025E32A95F1F70000EA
:102320000197A109B109E1CF8091D3020C94CF08A4
:10233000CF93DF93EC0188819981009711F00E947F
:102340003C1E198218821D821C821B821A82DF9118
:10235000CF910895FC0180819181009711F00C9438
:102360003C1E08950E94821FCF93DF93FC01C08121
:10237000D181209761F08991882349F0082E000CC3
:10238000990B0E94871FFE0131978083F4CFDF9164
:10239000CF9108950F931F93CF93DF93EC01888122
:1023A0009981009759F02A813B812617370730F031
:1023B00081E0DF91CF911F910F9108958B016F5FA5
:1023C0007F4F0E94C51E009759F0998388831B8315
:1023D0000A832C813D81232B59F7FC011082E8CF21
:1023E00080E0E7CFEF92FF920F931F93CF93DF939D
:1023F0006115710541F480E0DF91CF911F910F913C
:10240000FF90EF90089541155105B1F07B01EC016B
:102410000C811D81040F151FB8010E94CA11882369
:1024200051F3288139818C819D81B701820F931FDF
:102430000E94B01F1D830C8381E0DECFCF93DF931A
:10244000EC0141E050E066EF71E00E94F211811171
:1024500003C0CE010E949811CE01DF91CF91089563
:10246000EF92FF920F931F93CF93DF93EC017B01C9
:102470008A01BA010E94CA1181110BC0CE010E94CB
:102480009811CE01DF91CF911F910F91FF90EF90A6
:1024900008951D830C83B701888199810E94B01F24
:1024A000F0CFFB01DC0111961C921E9213961C9238
:1024B0001E92129715961C921E92149786179707D4
:1024C00049F0608171816115710521F04481558168
:1024D0000C9430120895AF92BF92CF92DF92EF9298
:1024E000FF920F931F93CF93DF9300D000D000D0C3
:1024F000CDB7DEB78C010E941A0589E993E090936D
:10250000D4048093D30485EC94E00E94A204019744
:1025100009F059C01092CE0462E085EC94E00E946C
:10252000B404B801CE0101960E94511209811A81AA
:10253000F12CE12CF801C1908F01CC2049F0809161
:10254000D3049091D404009709F041C0F12CE12C00
:102550006091CB0470E06E197F097695679585ECE4
:1025600094E00E94C304BE016F5F7F4F85EC94E04E
:102570000E94F90CCE0101960E94AA1183EB91E012
:102580009093D4048093D30485EC94E00E94A20439
:10259000019709F056C01092CE0464E085EC94E0F7
:1025A0000E94B40426960FB6F894DEBF0FBECDBFCE
:1025B000DF91CF911F910F91FF90EF90DF90CF901F
:1025C000BF90AF90089581E08093CE04A5CFFC0129
:1025D0003496A4903196E491CA1408F4B7CFD12C64
:1025E000B12CEA0DFB2DF11DCE16DF060CF0AECF9F
:1025F00085EC94E00E94A204E091D304F091D4040D
:102600002091D6040297D8F086E0C80ED11CCA18D3
:10261000DB08EC0DFD1DE491E29FE02D1124EE237B
:1026200009F494CF8091CE049091D604899F802D97
:1026300011248E0F9927991FE80EF91E7BCF329631
:10264000EACF81E08093CE04A8CFFC0111821082F2
:102650001382128215821482FB0101900020E9F797
:102660003197AF01461B570B0C943012EF92FF923B
:102670000F931F93CF93DF93CDB7DEB762970FB65B
:10268000F894DEBF0FBECDBF8C01CB01F8011182E3
:102690001082138212821582148250E09E012F5FF5
:1026A0003F4F7901B9010E94D91CF7010190002028
:1026B000E9F73197AF014E195F09B701C8010E94D0
:1026C000301262960FB6F894DEBF0FBECDBFDF9119
:1026D000CF911F910F91FF90EF900895EF92FF928D
:1026E0000F931F93CF93DF93EC018B011982188214
:1026F0001B821A821D821C82CB010E94A41C7C01B9
:10270000BC01CE010E94CA11811109C0CE01DF9126
:10271000CF911F910F91FF90EF900C949811FD8233
:10272000EC82B80188819981DF91CF911F910F913F
:10273000FF90EF900C949D1C1F920F920FB60F927A
:1027400011242F933F934F935F936F937F938F93B6
:102750009F93AF93BF93EF93FF938091B900887FCE
:10276000803609F44AC0F0F5883209F4A7C018F59C
:10277000803109F49BC0B8F4882309F4F9C088308B
:1027800009F494C0FF91EF91BF91AF919F918F9108
:102790007F916F915F914F913F912F910F900FBE5D
:1027A0000F901F901895883109F488C0803251F736
:1027B0008093D00214C0803409F49DC040F480336B
:1027C000B9F38833F9F68093D00285ECB0C0803538
:1027D00009F485C0883509F496C0883499F60E94BA
:1027E0006011D0CF883909F48CC038F5883729F0CA
:1027F00050F4883611F0803729F683E08093D202B6
:102800001092A50257C0883809F47BC0803919F0AE
:10281000803809F0B7CF8091A502803208F071C0EE
:10282000E091A50281E08E0F8093A5028091BB000C
:10283000F0E0EB57FD4F80833DC0803B39F0E0F482
:10284000803A09F479C0883A09F09CCF84E08093FB
:10285000D2021092840210928302E091A802F091B9
:10286000A90209958091830281110FC081E08093B4
:1028700083021092630209C0803C09F4A6CF883C11
:1028800009F4A3CF883B09F07DCFE091840281E079
:102890008E0F80938402F0E0ED59FD4F808180938C
:1028A000BB00909184028091830229C08091AD0287
:1028B0008093BB0085EC8093BC0064CF9091CF02E5
:1028C0008091CE02981758F5E091CF0281E08E0FEB
:1028D0008093CF02F0E0E255FD4F8081E9CFE09197
:1028E000CF0281E08E0F8093CF028091BB00F0E099
:1028F000E255FD4F80839091CF028091CE029817D0
:10290000C8F285E8D8CFE091CF0281E08E0F8093A6
:10291000CF028091BB00F0E0E255FD4F80838091B3
:10292000D10281115CCF81E08093AC0284EA809374
:10293000BC001092D20226CF85EC8093BC0010928E
:10294000D2028091A502803230F4E091A502F0E03D
:10295000EB57FD4F10826091A50270E0E091A60256
:10296000F091A70285E892E009951092A5020ACF9E
:102970001092D00234CF1F920F920FB60F921124F3
:102980002F933F938F939F93AF93BF9380913A027E
:1029900090913B02A0913C02B0913D0230913902EE
:1029A00023E0230F2D3758F50196A11DB11D20936B
:1029B000390280933A0290933B02A0933C02B09379
:1029C0003D0280913E0290913F02A0914002B09161
:1029D00041020196A11DB11D80933E0290933F02DA
:1029E000A0934002B0934102BF91AF919F918F910C
:1029F0003F912F910F900FBE0F901F90189526E8D2
:102A0000230F0296A11DB11DD2CF1F920F920FB6B8
:102A10000F9211242F933F934F935F936F937F9364
:102A20008F939F93AF93BF93EF93FF9388E093E0CF
:102A30000E94AB07FF91EF91BF91AF919F918F9152
:102A40007F916F915F914F913F912F910F900FBEAA
:102A50000F901F9018951F920F920FB60F9211248E
:102A60002F938F939F93EF93FF93E0911803F0912F
:102A700019038081E0911E03F0911F0382FD1BC0AA
:102A80009081809121038F5F8F73209122038217A1
:102A900041F0E0912103F0E0E85FFC4F958F8093D7
:102AA0002103FF91EF919F918F912F910F900FBE76
:102AB0000F901F9018958081F4CF1F920F920FB640
:102AC0000F9211242F933F934F935F936F937F93B4
:102AD0008F939F93AF93BF93EF93FF9382E00E94F6
:102AE0001E0BFF91EF91BF91AF919F918F917F91BD
:102AF0006F915F914F913F912F910F900FBE0F906B
:102B00001F9018951F920F920FB60F9211242F93BA
:102B10003F934F935F936F937F938F939F93AF9365
:102B2000BF93EF93FF9381E00E941E0BFF91EF9103
:102B3000BF91AF919F918F917F916F915F914F91D5
:102B40003F912F910F900FBE0F901F9018951F92DD
:102B50000F920FB60F9211242F933F934F935F93D1
:102B60006F937F938F939F93AF93BF93EF93FF9355
:102B700080E00E941E0BFF91EF91BF91AF919F915A
:102B80008F917F916F915F914F913F912F910F9016
:102B90000FBE0F901F901895CF93DF93FC0110820A
:102BA000118212821382148215821682EC012796FA
:102BB000DC011F961992AC17BD07E1F77F961D92B5
:102BC0001D92EA17FB07D9F7DF91CF910895CF93B4
:102BD000DF9365E971E083E295E00E9425136CE9DB
:102BE00071E08DE195E00E94251362EA71E087E1D2
:102BF00095E00E94251369EA71E081E195E00E9469
:102C0000251360EB71E08BE095E00E94251366EBE5
:102C100071E085E095E00E9425136CEB71E08FEF89
:102C200094E00E94251364EB71E089EF94E00E9428
:102C3000251362EC71E083EF94E00E94251367ECAA
:102C400071E08DEE94E00E9425136CEC71E087EE4C
:102C500094E00E94251362ED71E081EE94E00E9401
:102C600025136AED71E08BED94E00E942513ECEFE3
:102C7000F2E01382128288EE93E0A0E0B0E0848359
:102C80009583A683B7832EE431E031832083E8E087
:102C9000F3E01382128284839583A683B78380E650
:102CA00091E09183808385EC90E09587848784EC24
:102CB00090E09787868780EC90E0918B808B81EC09
:102CC00090E0938B828B82EC90E0958B848B86ECEA
:102CD00090E0978B868B118E128E138E148E62EE7F
:102CE00071E087E094E00E9425136AEE71E08DE0C8
:102CF00094E00E94251388EE93E00E94CC15C3E176
:102D0000D4E088E090E0998388838FEF9FEF9B83E6
:102D10008A8387E194E00E94CC158AE090E0A0E0ED
:102D2000B0E08BA39CA3ADA3BEA382E390E098A7E1
:102D30008FA38EE190E0A0E0B0E089A79AA7ABA7AF
:102D4000BCA710924104109240042EE3E2E4F4E0A8
:102D5000EF01322F19923A95E9F7109281041092FF
:102D60008004E2E8F4E0EF0119922A95E9F7109265
:102D7000C0048093C1049093C204A093C304B09391
:102D8000C4041092C8041092C7041092D104109287
:102D9000D2041092D4041092D3041092D50481E08E
:102DA0008093D60482E791E09093C6048093C50493
:102DB00085EA93E00E94CC1580E1E6ECF3E0DF01C8
:102DC000C82F1D92CA95E9F7E6EDF3E0DF011D92E9
:102DD0008A95E9F7DF91CF910895CF93DF93CDB72F
:102DE000DEB7A1970FB6F894DEBF0FBECDBF7894C3
:102DF00084B5826084BD84B5816084BD85B5826000
:102E000085BD85B5816085BD80916E0081608093B0
:102E10006E00109281008091810082608093810019
:102E20008091810081608093810080918000816029
:102E3000809380008091B10084608093B100809184
:102E4000B00081608093B00080917A0084608093AC
:102E50007A0080917A00826080937A0080917A0073
:102E6000816080937A0080917A00806880937A00F4
:102E70001092C1000E94B80888E48093B800E091E5
:102E80001803F091190382E08083E0911803F09118
:102E900019031082E0911403F09115031082E09160
:102EA0001603F091170380E1808310922003E091D4
:102EB0001C03F0911D0386E08083E0911A03F091DA
:102EC0001B03808180618083E0911A03F0911B03D2
:102ED000808188608083E0911A03F0911B038081D8
:102EE00080688083E0911A03F0911B0380818F7DBD
:102EF00080838091360490913704A0913804B0917A
:102F0000390480930C0390930D03A0930E03B093A8
:102F10000F0364E670E080E090E00E94400AE9E878
:102F2000F1E02491E5E7F1E08491882399F090E0C5
:102F3000880F991FFC01ED5AFE4FA591B491FC0139
:102F4000E35AFE4F859194918FB7F894EC91E22B60
:102F5000EC938FBF60E08EE00E944E0868E371E062
:102F600088E093E00E94A10A40E16CE370E080E019
:102F700090E00E94770C88E093E00E94DE0C6AE00B
:102F800070E080E090E00E94400A1092D8048CE348
:102F90008093D7041092C9041092CA04E2E3F1E0CE
:102FA00085919491E82EE4E3F1E0F490E5E3F1E01B
:102FB000E491E093CB04E6E3F1E0E491E093CC0408
:102FC000E7E3F1E0E491E093CD048C01802F8E19CA
:102FD0008F1548F4F801649185EC94E00E94AC04EC
:102FE0000F5F1F4FF3CF0E941A051092D10483EB9D
:102FF00091E09093D4048093D30485EC94E00E94F4
:10300000A204019709F0B9C01092CE040E941A05DB
:1030100067E271E088E093E00E94320D6AE070E0C0
:1030200080E090E00E94400A6EE071E085EC94E060
:103030000E94320D67EF70E085EC94E00E94320D43
:1030400060EE70E085EC94E00E94320D6CE271E07D
:1030500080E090E00E94400A88E093E00E94DE0C4D
:103060000E941A056EE771E0CE0140960E9425137A
:10307000B8E0CB2ED12CEE24E3948E010F5F1F4FCE
:10308000FC2CE092D802C092FA021092D90210925F
:10309000FB0281E00E941509811197C06DED70E07F
:1030A000C8010E946E13C8010E948E0AC8010E94C6
:1030B000AA111B861A861D861C861F861E8640E165
:1030C000B801C6010E94EF1CF80101900020E9F749
:1030D0003197AF01401B510BB801CE010A960E94F7
:1030E000301288899989009709F44DC06A857B85DB
:1030F0006115710509F445C04A895B892E853F85B4
:103100004217530708F43DC00E94B01F8E859F856B
:103110009D8B8C8B1F861E86CE010A960E94AA115B
:10312000CE0140960E94B411BE01605F7F4FC8017E
:103130000E945112C8010E948E0AC8010E94AA1161
:103140006BED70E0C8010E946E13C8010E948E0AE8
:10315000C8010E94AA11E8ECEF0DE83008F0B7C1F1
:10316000F0E0EB54F74E0C94861DD418551A581AFB
:103170005B1A5E1A611A671A641A81E08093CE04A2
:1031800045CF0E943C1E8A859B85998B888B8C85B8
:103190009D859B8B8A8B8E859F859D8B8C8B1B86BB
:1031A0001A861D861C86B6CF6AEC70E0C8010E94A4
:1031B0006E13C8010E941F0DC8010E94AA1161E090
:1031C00070E080E090E00E94400AFFEFCF1ADF0A33
:1031D00028E7C216D10409F053CF68EB7BE080E00A
:1031E00090E00E94400ACE0140960E94AA1140E160
:1031F0006FE370E0CE014C960E943613CE014C96E0
:103200000E94B41161EF71E0CE0101960E94251376
:1032100048A159A16C8D7D8DCE0101960E94F211BD
:10322000811104C0CE0101960E949811BE016F5F0A
:103230007F4FCE010A960E945112CE010A960E943B
:103240006B12CE010A960E94AA11CE0101960E942D
:10325000AA118FE380931A040E94B80887E194E0D2
:103260000E94410B4E0186E1880E911C6EE771E0D1
:10327000C4010E9425136EE771E0CE0140960E94C2
:103280002513E4E1EE2EE1E0FE2E00E111E0F4E191
:10329000AF2EF1E0BF2ECC24C394D12C2091190481
:1032A000C601F701008002C0880F991F0A94E2F757
:1032B000922F982B9093190490911704809589234D
:1032C0008093170487E194E00E94F50AF801408199
:1032D0000E5F1F4FF701608187E194E00E940D0BA4
:1032E000F701619171917F014AE0CE0101960E9440
:1032F0003613BE016F5F7F4FCE010A960E945112B6
:10330000CE010A960E941E12FC0144815581608103
:103310007181C4010E94F211CE010A960E94AA1185
:10332000CE0101960E94AA11F80132976081718145
:103330004AE0CE0101960E943613BE016F5F7F4FB7
:10334000CE010A960E945112CE010A960E941E12C8
:10335000FC014481558160817181CE0140960E94BB
:10336000F211CE010A960E94AA11CE0101960E9486
:10337000AA11A016B10609F091CFB401CE010196B1
:103380000E945112BE016F5F7F4F82E00E940B0DC1
:10339000CE0101960E94AA11BE01605F7F4FCE014F
:1033A00001960E945112BE016F5F7F4F83E00E9421
:1033B0000B0DCE0101960E94AA1164EF71E080E02E
:1033C00090E00E94400ACE0140960E94AA11C401DA
:1033D0000E94AA11CE014C960E94AA1187E090E0AB
:1033E0009093C5038093C403D092E703C092E60391
:1033F00080910001909101019093D7038093D603AF
:103400008EE0E2E0F1E0A6ECB3E001900D928A9547
:10341000E1F78DE38093A8030E94B80885EA93E062
:103420000E94410B02E011E0F12CE12CCC24C3946A
:10343000D12C8091C4039091C503E816F9060CF4D1
:1034400049C000E011E0F12CE12CCC24C394D12C34
:103450008091E6039091E703E816F9060CF05FC04F
:103460002091A703C601F801008002C0880F991FB0
:103470000A94E2F7922F982B9093A7039091A503BB
:10348000809589238093A50385EA93E00E94F50A3D
:1034900041E0F801608185EA93E00E940D0BFFEFA7
:1034A000EF1AFF0A0E5F1F4FD3CF60EC70E07ECEA5
:1034B00066EB70E07BCE6CEA70E078CE6CE970E091
:1034C00075CE67E970E072CE61E970E06FCE69E8B1
:1034D00070E06CCE2091A703C601F801008002C005
:1034E000880F991F0A94E2F78095922F9823909362
:1034F000A7039091A50389238093A50385EA93E010
:103500000E94F50A41E0F801608185EA93E00E949B
:103510000D0BFFEFEF1AFF0A0E5F1F4F8ACF68EF08
:1035200071E088E093E00E94E20C0E94360B10925A
:10353000140410921304A89550E0252E50E0352E67
:103540000E94220C5C0162E070E080E090E00E944A
:10355000400A0E94220C8C01A816B90611F010E056
:1035600000E0B801012E000C880B990B97FF2DC0CD
:103570000E94BD0C88E093E00E94DE0C580120E41C
:10358000A222BB2446ED842E43E0942E06FF21C0E8
:103590000054110936ED832E33E0932EB12CA12C6B
:1035A0008091E6039091E703A816B906B4F5F401FB
:1035B0006081F2E08F0E911C41E085EA93E00E9469
:1035C0000D0B2FEFA21AB20AEBCF4AE00E94770C44
:1035D000D1CF8091E6039091E703A816B906ECF4E9
:1035E000F4016081F2E08F0E911C41E050E0062E64
:1035F00002C0440F551F0A94E2F7440F452F441FA1
:10360000550B519521E04227417085EA93E00E94D5
:103610000D0B8FEFA81AB80ADCCF8091180190919A
:1036200019018017910709F460C0109319010093E4
:1036300018010E94730AB801012E000C880B990B27
:1036400097FF17C00E94BD0C88E093E00E94DE0C3B
:10365000F8013197E730F10508F047C0EE5CF44E11
:103660000C94861D3D1B4D1B521B571B5C1B821B64
:10367000531C4AE00E94770CE7CF809117048160C9
:103680008093170487E194E00E94F50A64E670E0F5
:103690008EE391E00E94CB0E28C06CE370E088E3DB
:1036A00091E0F8CF68E270E084E491E0F3CF67E363
:1036B00070E082E391E0EECF809117048E7F8093DB
:1036C000170487E194E00E94F50A6EE170E080E063
:1036D00090E00E94400A20E530E044E650E060E9D6
:1036E00071E08EE391E00E945A10A89521143104F4
:1036F00009F426CF0E943A08882309F421CF0E94BA
:1037000000001ECF0E94730A6B017C018091170498
:103710008E7F8093170487E194E00E94F50A6EE1A2
:1037200070E080E090E00E94400A0FB6F894A895FF
:1037300080916000886180936000109260000FBEED
:1037400084EF482E55245394612C712C90E9A92EB6
:10375000BB24B3940E94730A6C197D098E099F09DA
:103760006031774281059105B0F420E530E044E610
:1037700050E0B5018EE391E00E945A10C301B201FE
:103780000E94400AF9E1AF1AB10829E1421A510832
:1037900061087108DFCF24E130E048E750E06CE3D6
:1037A00070E08CE291E00E945A1060ED72E080E0DF
:1037B00090E00E94400A08EC10E024E630E04EE37E
:1037C00051E06CE370E084E491E00E94580F68ECF3
:1037D00070E080E090E00E94400A0AEF10E022E3EF
:1037E00030E044E451E064E670E08EE391E00E9452
:1037F000580F68EC70E080E090E00E94400A0CE214
:1038000011E024E630E04EE351E068E270E084E449
:1038100091E00E94580F6CE271E080E090E00E941D
:10382000400A0EE511E02EE130E044E451E064E6A8
:1038300070E08EE391E00E94580F6EE571E080E049
:1038400090E00E94400A00E911E024E630E04EE3F7
:1038500051E06AE070E084E491E00E94580F60E972
:1038600071E080E090E00E94400A28E532E044E107
:1038700050E0B5018EE391E00E945A1068EB7BE0C6
:1038800080E090E00E94400A00E117E22CE330E083
:103890004CE251E064E670E08EE391E00E94580F44
:1038A0000E94360B22CF809117048E7F80931704DD
:1038B00087E194E00E94F50A68E270E086E291E018
:1038C000E9CE8DE094E00E94AA1187E094E00E9486
:1038D000AA118BED94E00E94AA1181EE94E00E945F
:1038E000AA1187EE94E00E94AA118DEE94E00E9446
:1038F000AA1183EF94E00E94AA1189EF94E00E943C
:10390000AA118FEF94E00E94AA1185E095E00E9431
:10391000AA118BE095E00E94AA1181E195E00E9436
:10392000AA1187E195E00E94AA118DE195E00E941D
:10393000AA1183E295E00C94AA11FB01DC01059029
:103940000D920020E1F70895FC0105900020E9F7B1
:10395000809590958E0F9F1F089549E255E00E9433
:10396000B21C0895FA01A191B081009719F4109743
:10397000E1F0CD01DC01CD010D90002011F4C0017A
:1039800013C0FB012191222319F02015D9F7F3CFA1
:10399000FB012191201519F41E92119606C02223D5
:1039A000C1F70D900020A1F7D001FA01A193B083D7
:1039B00008954532510520F4423010F00C94E41C77
:1039C000FB011082CB010895BB274A3031F49923C3
:1039D00022F4BDE2909581959F4F0C94F01CBB277B
:1039E000FB015527AA27880F991FAA1FA41710F0BB
:1039F000A41B83955051B9F7A05DAA3308F0A95DC7
:103A0000A193009779F7B111B1931192CB010C9466
:103A1000091DDC01FC01672F71917723E1F73297D3
:103A200004C07C916D9370836291AE17BF07C8F399
:103A300008952F923F924F925F926F927F928F9252
:103A40009F92AF92BF92CF92DF92EF92FF920F932D
:103A50001F93CF93DF93CDB7DEB7CA1BDB0B0FB637
:103A6000F894DEBF0FBECDBF09942A8839884888F4
:103A70005F846E847D848C849B84AA84B984C8848A
:103A8000DF80EE80FD800C811B81AA81B981CE0F81
:103A9000D11D0FB6F894DEBF0FBECDBFED01089566
:103AA00097FB072E16F4009407D077FD09D00E94EB
:103AB0008C1D07FC05D03EF4909581959F4F08958D
:103AC000709561957F4F0895A1E21A2EAA1BBB1B2A
:103AD000FD010DC0AA1FBB1FEE1FFF1FA217B307DA
:103AE000E407F50720F0A21BB30BE40BF50B661FF0
:103AF000771F881F991F1A9469F7609570958095B4
:103B000090959B01AC01BD01CF010895EE0FFF1F01
:103B10000590F491E02D0994AA1BBB1B51E107C04D
:103B2000AA1FBB1FA617B70710F0A61BB70B881F4D
:103B3000991F5A95A9F780959095BC01CD010895DC
:103B40000F931F93CF93DF938230910510F482E09F
:103B500090E0E0912D05F0912E0530E020E0B0E0FE
:103B6000A0E0309799F42115310509F44AC0281BCB
:103B7000390B24303105D8F58A819B816115710597
:103B800089F1FB0193838283FE0111C04081518141
:103B90000281138148175907E0F04817590799F433
:103BA000109761F012960C93129713961C9332960D
:103BB000CF01DF91CF911F910F91089500932D05B3
:103BC00010932E05F4CF2115310551F042175307FC
:103BD00038F0A901DB019A01BD01DF01F801C1CF75
:103BE000EF01F9CF90932E0580932D05CDCFFE01E7
:103BF000E20FF31F81939193225031093983288377
:103C0000D7CF20912B0530912C05232B41F4209107
:103C10001C0130911D0130932C0520932B05209120
:103C20001A0130911B012115310541F42DB73EB722
:103C300040911E0150911F01241B350BE0912B0573
:103C4000F0912C05E217F307A0F42E1B3F0B281769
:103C5000390778F0AC014E5F5F4F2417350748F005
:103C60004E0F5F1F50932C0540932B05819391932A
:103C70009FCFF0E0E0E09CCFCF93DF930097E9F097
:103C8000FC01329713821282A0912D05B0912E056E
:103C9000ED0130E020E01097A1F420813181820F06
:103CA000931F20912B0530912C052817390709F017
:103CB00061C0F0932C05E0932B05DF91CF9108951F
:103CC000EA01CE17DF07E8F54A815B819E014115C5
:103CD0005105B1F7E901FB83EA8349915991C40F7A
:103CE000D51FEC17FD0761F4808191810296840F46
:103CF000951FE90199838883828193819B838A83BD
:103D0000F0E0E0E012968D919C9113970097B9F541
:103D10002D913C911197CD010296820F931F209116
:103D20002B0530912C052817390739F6309751F5B6
:103D300010922E0510922D05B0932C05A0932B0503
:103D4000BCCFD383C28340815181840F951FC81794
:103D5000D90761F44E5F5F4F88819981480F591FE1
:103D6000518340838A819B8193838283211531050E
:103D700009F0B0CFF0932E05E0932D059ECFFD0105
:103D8000DC01C0CF13821282D7CFB0E0A0E0EBEC11
:103D9000FEE10C941B1D8C01009751F4CB010E9495
:103DA000A01D8C01C801CDB7DEB7E0E10C94371D32
:103DB000FC01E60FF71F9C0122503109E217F307BF
:103DC00008F49DC0D901CD91DC911197C617D70792
:103DD00098F0C530D10530F3CE01049786179707C8
:103DE00008F3C61BD70B2297C193D1936D937C9395
:103DF000CF010E943C1ED6CF5B01AC1ABD0A4C011C
:103E00008C0E9D1EA0912D05B0912E05512C412C9C
:103E1000F12CE12C109731F580912B0590912C0518
:103E20008815990509F05CC04616570608F058C079
:103E300080911A0190911B01009741F48DB79EB7B4
:103E400040911E0150911F01841B950BE817F90743
:103E500008F055C0F0932C05E0932B05F901718310
:103E60006083A0CF8D919C91119712966C901297C0
:103E700013967C901397A815B90559F56C0142E08B
:103E8000C40ED11CCA14DB0420F1AC014A195B0931
:103E9000DA011296159780F0628273825183408313
:103EA000D9016D937C93E114F10471F0D70113965D
:103EB000FC93EE93129776CF22968C0F9D1FF901FB
:103EC00091838083F301EFCFF0932E05E0932D05CE
:103ED00069CF4816590608F42C017D01D3019ACF09
:103EE000CB010E94A01D7C01009749F0AE01B801F2
:103EF0000E949C1FC8010E943C1E870153CF10E006
:103F000000E050CF81E090E0F8940C945822911199
:103F1000089581568A5108F4805285580895FB010E
:103F2000DC0104C08D910190801921F44150504072
:103F3000C8F7881B990B0895FB01DC0102C00190B2
:103F40000D9241505040D8F70895FB01DC010D90CF
:103F50000020E9F7119701900D920020E1F70895F4
:103F6000FB01DC0101900D920020E1F70895AEE025
:103F7000B0E0EDEBFFE10C94271D0D891E8986E072
:103F80008C831A8309838FEF9FE79E838D83AE0115
:103F9000475E5F4F6F89788DCE0101960E94DA1FD0
:103FA0002F813885020F131FF80110822E96E4E04E
:103FB0000C94431DABE0B0E0E0EEFFE10C94191D62
:103FC0007C013B018A01FC0117821682838181FFFB
:103FD000C8C1CE0101965C01F7019381F30193FD05
:103FE000859193FF81913F01882309F453C1853264
:103FF00039F493FD859193FF81913F01853229F436
:10400000B70190E00E94CA21E7CF912C212C312CDE
:10401000FFE1F31538F08B3211F190F4803209F1A1
:10402000833229F137FC3CC020ED280F2A3050F5AF
:1040300036FE20C08AE0989E200D1124922E06C0E4
:104040008D3291F0803371F7689430F8F30193FD6D
:10405000859193FF81913F018111DACF21C068944E
:1040600031F8689432F8F2CF689433F8EFCF68945F
:1040700034F8ECCFEAE02E9E200D1124222E689415
:1040800035F8E4CF8E3229F436FC04C1689436F852
:10409000DDCF8C3619F4689437F8D8CF8836B1F272
:1040A000982F9F7D95549330E0F08336A1F18337AC
:1040B000C1F1833509F063C02801F2E04F0E511CB5
:1040C000F801C080D180692D70E036FC02C06FEF2E
:1040D0007FEFC6010E94B4214C01689437F8820139
:1040E0000AC00C5F1F4FFFE3F98388248394912C4F
:1040F0006501E89437F833FE2DC0522C81149104E9
:1041000071F5552009F468CFB70180E290E00E9474
:10411000CA215A94F6CFF801808189830E5F1F4F20
:10412000E4CF2801F2E04F0E511CF801C080D1808D
:10413000692D70E036FC02C06FEF7FEFC6010E9470
:10414000BF214C018201D5CFB70180E290E00E94EF
:10415000CA212A942814190409F0B0F7CECFF60129
:1041600037FC859137FE81916F01B70190E00E9485
:10417000CA2151105A94F1E08F1A9108BFCF8436AA
:1041800019F0893609F077C0F80137FE6BC06081FD
:104190007181828193810C5F1F4FF32DFF763F2E3B
:1041A00097FF09C090958095709561957F4F8F4FCF
:1041B0009F4F689437F82AE030E0A5010E94FA2169
:1041C000C82ECA188C2C432C36FE0CC0E89440F83C
:1041D000C91440F434FE05C032FC03C0F32DFE7E4A
:1041E0004F2E892C44FE95C0FE01EC0DF11D8081FF
:1041F000803309F087C0242D297E422E842D8870BB
:10420000582E43FC95C040FE8FC09C2C821418F49D
:104210002C0C922C981844FE91C0B70180E390E0DA
:104220000E94CA2142FE09C088E790E041FE02C018
:1042300088E590E0B7010E94CA21C91408F48AC039
:10424000CA94D12C9FEFC91AD90ACA0CDB1CF601FB
:1042500082916F01B70190E00E94CA21AC14BD04A5
:10426000B1F74FCF60817181072E000C880B990B3D
:104270000E5F1F4F92CFD32CE894D4F82AE030E0A1
:10428000853739F1232D297FD22E8F3601F148F45D
:104290008835A9F0F701868197812B96E2E10C948D
:1042A000351D803749F08837A9F7D4FE02C06894DD
:1042B000D2F820E130E00DC06894D4F8F6CF34FE97
:1042C00003C0822F8660D82E20E132E002C028E0B1
:1042D00030E0F801D7FE0FC0608171818281938147
:1042E0000C5F1F4FA5010E94FA21C82ECA183D2C51
:1042F000E89437F867CF6081718190E080E00E5FCD
:104300001F4FF0CF42FC02C0839478CF83948394F4
:1043100075CF842D867809F471CFF6CFB70180E28E
:1043200090E00E94CA2183948214C0F3512C73CF71
:10433000522C5818821408F46ECFF8CF842D86784A
:1043400009F47BCF8BE241FE80E247FC8DE2B701AE
:1043500090E071CFB70180E390E00E94CA219A9467
:104360006CCF8FEF9FEF99CFFC01059061507040AB
:104370000110D8F7809590958E0F9F1F0895FC012E
:104380006150704001900110D8F7809590958E0F84
:104390009F1F08950F931F93CF93DF93182F092F1B
:1043A000EB018B8181FD09C01FEF0FEF812F902F53
:1043B000DF91CF911F910F91089582FF14C02E813C
:1043C0003F818C819D81281739073CF4E881F98170
:1043D000CF0101969983888310838E819F810196F6
:1043E0009F838E83E3CFE885F985812F0995892BFB
:1043F000A1F3DACFFA01AA27283051F1203181F157
:10440000E8946F936E7F6E5F7F4F8F4F9F4FAF4FDC
:10441000B1E03ED0B4E03CD0670F781F891F9A1FEF
:10442000A11D680F791F8A1F911DA11D6A0F711DA3
:10443000811D911DA11D20D009F468943F912AE0AF
:10444000269F11243019305D3193DEF6CF01089597
:10445000462F4770405D4193B3E00FD0C9F7F6CFC8
:10446000462F4F70405D4A3318F0495D31FD405290
:10447000419302D0A9F7EACFB4E0A6959795879526
:1044800077956795BA95C9F7009761057105089505
:104490009B01AC010A2E06945795479537952795B1
:1044A000BA95C9F7620F731F841F951FA01D089549
:1044B00014E0C8E5D4E004C0FE010E94861D2196E8
:0A44C000C935D107C9F7F894FFCF02
:1044CA0007000000010002000300040005000600C6
:1044DA000100010000000100FFFF00002F0580001D
:1044EA006B006C006D000000FF000000FF00FF0081
:1044FA00FF0000000000FF00FF00C8007800000075
:10450A0000000000FF0000000000000000003F075C
:10451A001207F20AE8060B07F806E906000000008F
:10452A00CD07C50A6E071A089F077D079107000085
:10453A0000005F05C50AF20A7F0A050A0D0A00256E
:10454A0069006D65737361676520746F6F206C6FA6
:10455A006E6721210021466C61675F0021536574F3
:10456A00740021426567696E0021524649445F0022
:10457A00214C45445F0021506F6C6C0021507573CB
:10458A0068002141434B0021454F4600214B657984
:10459A005000214865616465720021536572766F27
:1045AA005F00214B6579436D6400214F6C65644857
:1045BA000052656C6179200057445420656E64612D
:0645CA00626C6564000054
:00000001FF
