:100000000C946D040C9495040C9495040C94DF15D9
:100010000C94BA150C9495150C9495040C949504B5
:100020000C9495040C9495040C9495040C949504EC
:100030000C9495040C9495040C9495040C949504DC
:100040000C94F3140C9495040C9463150C943D15C6
:100050000C9495040C9495040C9495040C949504BC
:100060000C94D4130C949504AEB08180A1A6A83F43
:10007000AD8B32C8D300D580D91FDA12DB40AF5325
:1000800054414745494E44455820455252524F52DB
:10009000210000000000230026002900556E6B6E31
:1000A0006F776E0052656C6179004F6C6564004F2C
:1000B0006C656420202864656661756C7429004B4A
:1000C00065797061642F494F004B65797061642FC9
:1000D000494F004B65797061642F494F004B65793A
:1000E000706164202864656661756C742900200065
:1000F0003078002B2D2D2D2D2D2D2D2D2D2D2D2D11
:100100002D2D2D2D2D2D2D2D2B007C20202020451B
:100110006C656374726F7363617065202020207C4E
:10012000000A0A2B2D2D2D2D2D2D2D2D2D2D2D2D74
:100130002D2D2D2D2D2D2D2D2B00537563636573C6
:100140007366756C006800178040020A0A4F4C45C0
:100150004420696E6974206F6E2041646472657317
:10016000733A2030780000000000240027002A00A5
:10017000537461676573206F7574206F6620696EB4
:10018000646578210000000000250028002B000491
:10019000040404040404040202020202020303032E
:1001A0000303030102040810204080010204081028
:1001B00020010204081020000000080002010000D5
:1001C000030407000000000000000000030C0F30D3
:1001D000333C3FC0C3CCCFF0F3FCFF000005072049
:1001E00060000000000000005F0000000700070042
:1001F000147F147F14242A7F2A1223130864623682
:10020000495620500008070300001C22410000410D
:10021000221C002A1C7F1C2A08083E080800807047
:10022000300008080808080000606000201008047A
:10023000023E5149453E00427F40007249494946CD
:100240002141494D331814127F1027454545393C4B
:100250004A49493141211109073649494936464938
:1002600049291E000014000000403400000008145A
:1002700022411414141414004122140802015909D3
:10028000063E415D594E7C1211127C7F4949493628
:100290003E414141227F4141413E7F494949417FA1
:1002A000090909013E414151737F0808087F004157
:1002B0007F41002040413F017F081422417F4040A0
:1002C00040407F021C027F7F0408107F3E41414175
:1002D0003E7F090909063E4151215E7F09192946E1
:1002E000264949493203017F01033F4040403F1FF7
:1002F0002040201F3F4038403F631408146303042C
:100300007804036159494D43007F4141410204088B
:100310001020004141417F0402010204404040405E
:1003200040000307080020545478407F2844443894
:100330003844444428384444287F385454541800DE
:10034000087E090218A4A49C787F0804047800445D
:100350007D40002040403D007F1028440000417F48
:1003600040007C047804787C0804047838444444D1
:1003700038FC1824241818242418FC7C08040408C9
:10038000485454542404043F44243C4040207C1CE2
:100390002040201C3C4030403C44281028444C90D5
:1003A00090907C4464544C4400083641000000772F
:1003B0000000004136080002010204023C26232608
:1003C0003C1C620A0C206002020508070D080204AA
:1003D00004050702040206070607070707070707C1
:1003E000070202070707050A0707070806060808A5
:1003F00004060707090809070908070808070C0782
:10040000080604060408090306060606060506068D
:10041000020407020A0606060605050506060A0680
:1004200006050602060809000000007E7E3030073F
:10043000070007070000000000C0D8F8DED8F8DE8B
:10044000180030000030000000387C64FF64E4C80D
:10045000102020F02030103C7E427E3CC02018E668
:10046000F010F0E0000000003000000010302030FC
:1004700010DCFE227EDC8060201030202020103036
:100480002007070000F8FE07011070E0800107FE5A
:10049000F880E07010120C3F0C12000000000020E9
:1004A0002020FC202020000000100000000000F0B0
:1004B000702020202000000000000030300080E08C
:1004C0007C1F03C0F030000000FCFE020202FEFCB4
:1004D000103020202030100404FEFE0000202030C8
:1004E000302020040682C2623E1C203030202020B2
:1004F000200406222222FEDC10302020203010C0F2
:10050000A09884FEFE8000000000303000001E1E17
:100510001212F2E210302020203010F8FC161212D5
:10052000F2E010302020203010020282E27A1E0613
:1005300000203010000000DCFE222222FEDC103001
:1005400020202030103C7E424242FEFC0020202031
:10055000301000181830301818F070606090900853
:10056000080400000000101020909090909090904F
:100570000000000000000004080890906060201057
:1005800010000000000462721E0C0030300000F009
:100590000CF4FA0AFAFA040CF000302050505050D3
:1005A00010100080F8FE86FEF88030300000003029
:1005B00030FEFE22223EFCC030302020203010F8D9
:1005C000FC060202020400103020202010FEFE0271
:1005D000020206FCF83030202020301000FEFE22FF
:1005E000222222303020202020FEFE222222223011
:1005F0003000000000F8FC06024242C2C400103085
:100600002020203030FEFE20202020FEFE30300052
:10061000000000303002FEFE0220303020000202D6
:1006200002FEFE202020203010FEFE70D88C060234
:1006300030300000103020FEFE000000000030309E
:100640002020202020FE0E3CF0C0300CFEFE3000AA
:1006500000000000003030FE061C38E0C000FE3014
:1006600000000000103030F8FC0602020206FCF820
:10067000001030202020301000FEFE4242427E3C1E
:1006800030300000000000F8FC0602020206FCF810
:100690000010302060E0B09080FEFE2262E2BE1CBE
:1006A0000030300000001030201C3E322262E2C4D4
:1006B00010202020203010020202FEFE0202020062
:1006C00000003030000000FEFE00000000FEFE10C2
:1006D000302020202030100E7EF080F07E0E0000B2
:1006E00030303000000E7EF080E03E3EE080F07E54
:1006F0000E000030300000000030300000068EF8A0
:1007000070F88E0630300000003030060E18F0F021
:10071000180E06000000303000000002C2F23E0E4B
:1007200002303020202020FFFF0101F0F080800304
:100730001F7CE0800000000030F0C00101FFFF805E
:1007400080F0F010180C06060C18100000000000D5
:100750000000000000000000000000008080808099
:100760008080808080010302000000C0E82828F813
:10077000F0103020203030FFFF0808F8F030302033
:10078000203010F0F808080810103020202010F059
:10079000F80808FFFF103020203030F0F848487883
:1007A0007010302020201008FEFF090900303000B2
:1007B00000F0F80808F8F810B0A0A0F070FFFF08EB
:1007C00008F8F0303000003030FBFB30300008FB20
:1007D000FB8080F070FFFF60F09808003030000070
:1007E000103020FFFF3030F8F81008F8F01008F84B
:1007F000F030300000303000003030F8F80808F8F1
:10080000F0303000003030F0F80808F8F0103020F8
:10081000203010F8F80808F8F0F0F020203010F040
:10082000F80808F8F810302020F0F0F8F810181840
:100830003030000000307848C88820202030100870
:10084000FEFE08080010302020F8F80000F8F8102C
:10085000302020303038F8C0C0F838001030301068
:100860000078F880C03838C080F878003030000058
:10087000000030300018B8E0E0B818303000003028
:100880003038F8C0C0F8380090F070100008C8E8A0
:10089000781830302020202020FEDF010100007079
:1008A000F08080FFFFF0F00101DFFE20208080F06B
:1008B000700000E0101020408080700000000000F8
:1008C000000000FE02020202020202FE302020208E
:1008D0002020202030001F16642111241FBECFEFDE
:1008E000D8E0DEBFCDBF26E0ACE2B3E001C01D9290
:1008F000A236B207E1F713E0A0E0B1E0ECEEFEE4CF
:1009000002C005900D92AC32B107D9F714E0CCE6E5
:10091000D4E004C02197FE010E948922CB36D10782
:10092000C9F70E942F170C9469270C9400000895B2
:100930000895CF93DF93EC018D85882329F08150B2
:100940008D87DF91CF9108959C818E819817C8F78C
:1009500088896827E881F9810084F185E02D42E0EB
:10096000CE0109958C818F5F8C83EBCFDC011E96C5
:10097000ED91FC9184913196E491982F8E2F0895FA
:10098000DC01ED91FC910084F185E02D40E00994BB
:10099000FC012781269526952695621738F46583F4
:1009A0002385620F6770606B0C94C00408950F93E9
:1009B0001F93CF93FC012681621798F4C62F8C01F8
:1009C00064836085C60F6C2F6F700E94C0046C2F0B
:1009D00062956F706061C801CF911F910F910C9467
:1009E000C004CF911F910F910895CF92DF92EF92A3
:1009F000FF920F931F93CF93DF93EC01F62EC42E3B
:100A0000D22E1D868F81869586958695081710F0C3
:100A10000FEF080F1D2D6F2DCE01011788F00E94DA
:100A2000D704612FCE010E94C804EF2CCE1430F001
:100A30006889CE010E949904E394F8CF1F5FEBCF41
:100A40000E94D7046D2DCE01DF91CF911F910F91A0
:100A5000FF90EF90DF90CF900C94C8040F9310920A
:100A600003061092020660E488EF95E00E94C0043D
:100A70000091FF0506950695069501504091FE05EB
:100A8000415020E060E088EF95E00E94F5040F916E
:100A900008950F93DC0115962C9115971E96ED91F4
:100AA000FC911F9700E0309779F03396E491F0E0E5
:100AB000379683E0F595E7958A95E1F751960C9185
:100AC00051970E9F002D1124EFEFE20F0E0F169697
:100AD0004C911697415014966C911497CD010E9439
:100AE000F5040F9108952F923F924F925F926F926B
:100AF0007F928F929F92AF92BF92CF92DF92EF92AE
:100B0000FF920F931F93CF93DF9300D000D000D0BC
:100B1000CDB7DEB7FC01068517850115110509F46F
:100B200041C19E838D83F801329664903196A490E2
:100B3000EA2CF12CF7E0EF0EF11C23E0F594E7949A
:100B40002A95E1F7E982F801349684913196E4918F
:100B50006D3001F560E08D819E810E94D70481E0B7
:100B600090E026960FB6F894DEBF0FBECDBFDF91A2
:100B7000CF911F910F91FF90EF90DF90CF90BF909A
:100B8000AF909F908F907F906F905F904F903F902D
:100B90002F9008956A30D1F560E08D819E810E948A
:100BA000D704ED81FE8181898E9DE02C1124658121
:100BB0006E0D8485882349F0978196959695969534
:100BC0008E2D891B860F18162CF08D819E810E9418
:100BD000C804C5CFED81FE812385820F877083878E
:100BE0009E199583CF010E944905ED81FE81848580
:100BF000813009F0B4CF6385660F660F660F6F739F
:100C000062876064CF010E94C004A9CF681708F40E
:100C1000C9C0CE2ED12C9601280F311D62171306A4
:100C20000CF0C0C00A5F1F4FB62EB81AED81FE81CE
:100C300091858189989F802D11248C83CF010E94FA
:100C4000B604029708F06FC06E9CC0016F9C900DB7
:100C50001124B89E6001B99ED00C11240C0D1D1DED
:100C6000512CED81FE81F481FA83ED81FE81258096
:100C7000F585FB83862C912CAA24A394B12C312CCE
:100C80008981381608F08CC0412CED81FE81818964
:100C9000481608F07EC08B818587311002C0442041
:100CA00069F0ED81FE81D580D3946A81CF010E94E5
:100CB000D7046D2D8D819E810E94C804D12CC12C3A
:100CC000C61408F059C0F801EC0DFD1D74905520B4
:100CD00061F0EA14FB0449F4E72DF0E0052C02C0B2
:100CE000F595E7950A94E2F77E2EED81FE818189E4
:100CF000823081F4442009F43BC072948FE0782262
:100D0000E72DF0E0E553FE4F7490672D8D819E81B5
:100D10000E949904672D8D819E810E9499048FEF16
:100D2000C81AD80ACDCFEA2DE77088E0582E5E1A8F
:100D3000E11101C0512CF801612C90E080E06B14AE
:100D400031F02491820F911D63943196F8CF600E9B
:100D5000712E711CF3016490E89EF001E99EF00D84
:100D6000F89EF00D1124CE0EDF1E0C0D1D1D79CF47
:100D7000F72DFF707F2EC4CFD12CEC81DE1639F019
:100D800060E08D819E810E949904D394F6CF4394B4
:100D90007CCF3394080D191DFFEFAF1ABF0A70CF37
:100DA000622D13CF90E080E0DCCE2091B203260FBD
:100DB0003327331F21323105ECF420910104FC016B
:100DC00090E080E0243069F082E00895A091B203C1
:100DD0002191AC014E565C4FA40FB52FB11D2C9341
:100DE0000196861798F38091B203680F6093B2035F
:100DF00080E0089581E008950895E091DA038091FC
:100E0000D903E81730F4F0E0EF58FC4F808190E010
:100E100008958FEF9FEF08959091DA038091D903A1
:100E20002FEF3FEF981748F4E92FF0E0EF58FC4F11
:100E3000208130E09F5F9093DA03C901089580918B
:100E4000D9039091DA03891B990B0895CF92DF9211
:100E5000EF92FF920F931F93CF93DF937C01CB010F
:100E60008A0120910704222389F0EB016B01C40E53
:100E7000D51ECC15DD0569F06991D701ED91FC9186
:100E80000190F081E02DC7010995F3CF642F0E94F6
:100E9000D506C801DF91CF911F910F91FF90EF9080
:100EA000DF90CF900895CF93DF931F92CDB7DEB739
:100EB0006983209107042223F9F020912A0420322B
:100EC00058F021E030E0FC013383228390E080E0A1
:100ED0000F90DF91CF91089580910804E82FF0E002
:100EE000E75FFB4F998190838F5F80930804809325
:100EF0002A0481E090E0ECCF61E0CE0101960E94EF
:100F0000D506F7CF90E0FC01E954FE4F2491FC0197
:100F1000ED55FE4F3491FC01E157FE4FE491EE2375
:100F2000C9F0222339F0233001F1A8F4213019F15E
:100F3000223029F1F0E0EE0FFF1FEB57FE4FA59195
:100F4000B4918FB7F894EC91611126C030953E238F
:100F50003C938FBF08952730A9F02830C9F0243082
:100F600049F7809180008F7D03C0809180008F774A
:100F700080938000DFCF84B58F7784BDDBCF84B5CD
:100F80008F7DFBCF8091B0008F778093B000D2CF60
:100F90008091B0008F7DF9CF3E2BDACF1092010403
:100FA00081E0809300041092DB0361E082E10E9403
:100FB000820761E083E10E948207E9EBF0E0808133
:100FC0008E7F808380818D7F808388E48093B800CA
:100FD00085E48093BC0008951092DA031092D9033F
:100FE0001092080410922A040E94CE0787E994E028
:100FF0009093D8038093D70388E994E09093D60325
:101000008093D5030895CF93DF9391E0909391035C
:101010008823B9F0C091B800D091BA008091BC008B
:101020008A7B8093BC0060E082E10E94820760E0DE
:1010300083E10E9482070E94CE07D093BA00C0933A
:10104000B800DF91CF9108953FB7F89480916D0378
:1010500090916E03A0916F03B091700326B5A89B89
:1010600005C02F3F19F00196A11DB11D3FBFBA2F3A
:10107000A92F982F8827BC01CD01620F711D811DFA
:10108000911D42E0660F771F881F991F4A95D1F77F
:1010900008958F929F92AF92BF92CF92DF92EF927C
:1010A000FF920F931F93CF93DF93D0912A04D132F5
:1010B00008F0D7C0182FC09129040E9424086B01A2
:1010C0007C018091010481116BC082E08093010456
:1010D000109300048FEF8093FF031092FE03D093D0
:1010E000FD03A9E0B4E0EDEDF3E080E0D81391C09A
:1010F0001092DC038091DC03CC0FC82BC093DC037F
:101100008091DB03813009F088C01092DB030E94DC
:1011100024086B017C018091DC038093BB008091EB
:10112000030490910404A0910504B0910604892B56
:101130008A2B8B2BA1F00E942408009103041091AC
:10114000040420910504309106046C197D098E0970
:101150009F09061717072807390708F442C080912E
:10116000BC0083FDD8CF85EC8093BC000E9424088E
:101170006B017C0180910104823009F450C08091A0
:10118000FF038F3F09F46FC08091FF03803209F4A1
:101190006CC08091FF03803309F469C084E026C0ED
:1011A0008091030490910404A0910504B091060479
:1011B000892B8A2B8B2B09F484CF0E9424088090E2
:1011C000030490900404A0900504B09006046C19E8
:1011D0007D098E099F0986169706A806B90608F0AC
:1011E00070CF809102040E94030885E010920804E9
:1011F00010922A0410920704DF91CF911F910F9152
:10120000FF90EF90DF90CF90BF90AF909F908F9026
:1012100008959D9191938F5F69CF85EEA5CF8091C1
:10122000030490910404A0910504B0910604892B55
:101230008A2B8B2B09F49ECF0E9424080091030473
:101240001091040420910504309106046C197D0965
:101250008E099F09061717072807390708F08ACF54
:10126000C0CF81E0C3CF80E0C1CF82E0BFCF83E0B9
:10127000BDCF8F929F92AF92BF92CF92DF92EF92AB
:10128000FF926B017C010E9424084B015C01C11498
:10129000D104E104F104B9F00E9424086819790925
:1012A0008A099B09683E73408105910580F321E01E
:1012B000C21AD108E108F10888EE880E83E0981E72
:1012C000A11CB11CE4CFFF90EF90DF90CF90BF90B6
:1012D000AF909F908F9008952FB7F8946091690315
:1012E00070916A0380916B0390916C032FBF0895F6
:1012F0000895DB0114964D915C9115976D917C9149
:10130000DC01ED91FC910280F381E02D0994EF92D4
:10131000FF920F931F93CF93DF938C017B01D0E05B
:10132000C0E0F701EC0FFD1F6491662361F0D80166
:10133000ED91FC910190F081E02DC8010995892B78
:1013400011F02196EECFCE01DF91CF911F910F9139
:10135000FF90EF900895AF92BF92CF92DF92EF92FD
:10136000FF920F931F93CF93DF936C017B018B014F
:10137000040F151FEB015E01AE18BF08C017D1079F
:1013800059F06991D601ED91FC910190F081E02D29
:10139000C6010995892B79F7C501DF91CF911F917E
:1013A0000F91FF90EF90DF90CF90BF90AF90089596
:1013B000FC01538D448D252F30E0842F90E0821B5B
:1013C000930B541710F0CF96089501970895FC01E0
:1013D000918D828D981761F0A28DAE0FBF2FB11D38
:1013E0005D968C91928D9F5F9F73928F90E0089590
:1013F0008FEF9FEF0895FC01918D828D981731F04A
:10140000828DE80FF11D858D90E008958FEF9FEF9D
:101410000895FC01918D228D892F90E0805C9F4F73
:10142000821B91098F739927089587E394E00E94A6
:10143000090A21E0892B09F420E0822F089580E039
:1014400090E0892B29F00E94150A81110C9400006C
:101450000895FC01A48DA80FB92FB11DA35ABF4F49
:101460002C91848D90E001968F739927848FA689A3
:10147000B7892C93A089B1898C91837080648C93F7
:10148000938D848D981306C00288F389E02D8081A6
:101490008F7D80830895EF92FF920F931F93CF93D8
:1014A000DF93EC0181E0888F9B8D8C8D98131AC09F
:1014B000E889F989808185FF15C09FB7F894EE8986
:1014C000FF896083E889F9898081837080648083E3
:1014D0009FBF81E090E0DF91CF911F910F91FF902E
:1014E000EF900895F62E0B8D10E00F5F1F4F0F73D6
:1014F0001127E02E8C8D8E110CC00FB607FCFACF91
:10150000E889F989808185FFF5CFCE010E94290AFB
:10151000F1CFEB8DEC0FFD2FF11DE35AFF4FF08261
:101520009FB7F8940B8FEA89FB8980818062CFCFC7
:10153000CF93DF93EC01888D8823B9F0AA89BB890A
:10154000E889F9898C9185FD03C0808186FD0DC0F5
:101550000FB607FCF7CF8C9185FFF2CF808185FF16
:10156000EDCFCE010E94290AE9CFDF91CF910895F6
:10157000CF93DF93EC01BC0188EF95E00E947909DD
:10158000BE0187E394E00E94790987E394E0DF914C
:10159000CF910C94980A0F931F93CF93DF93EC0194
:1015A000062F142F8B89813120F4882331F04111CB
:1015B00004C081E00E9449081B8A8B89811112C0F6
:1015C0008A8991E09093070480932904109208047B
:1015D00010922A0460E4111101C060E08BE294E0F3
:1015E0000E945307602F8BE294E00E945307123051
:1015F00041F48B898F5F8B8BDF91CF911F910F917E
:10160000089581E00E9449081B8AF6CF90E080E0AF
:101610000895FC01918162818081238131E03093C2
:101620000704209329041092080410922A0460955C
:101630006923682B8BE294E00E94530781E00C94AD
:10164000490821E030E001C0220F6A95EAF7FC0169
:101650003081442321F0232B20830C94090B209507
:101660002323FACFCF92DF92EF92FF920F931F9333
:10167000CF93DF937C0109E015E0D0E0C0E0CC24FB
:10168000C394D12C8091190590911A05C817D907D8
:10169000BCF4F80160810E5F1F4FC601062E02C028
:1016A000880F991F0A94E2F78E219F2141E0892B30
:1016B00009F040E088ED94E00E94210B2196E2CFF2
:1016C00081E0DF91CF911F910F91FF90EF90DF901C
:1016D000CF9008950F931F93CF93DF9309E015E008
:1016E000D0E0C0E08091190590911A05C817D9077C
:1016F0005CF4F80160810E5F1F4F41E088ED94E0DB
:101700000E94210B2196EECFDF91CF911F910F9177
:10171000089590E0FC01EE0FFF1FEA56FF4FA591E0
:10172000B4912C91FC01E45AFC4F30812083880F46
:10173000991FFC01E052FE4F0190F081E02D808165
:10174000089588E199E20FB6F894A8958093600017
:101750000FBE9093600008958F929F92AF92BF92B8
:10176000CF92DF92EF92FF920F931F93CF938C0152
:10177000FC0181818483C3810E9424086B017C0168
:1017800080910104811164C081E080930104809301
:1017900000049FEF9093FF031092FE031092FD034D
:1017A0008093DC038091DC03CC0FC82BC093DC0357
:1017B0008091DB03813009F078C01092DB030E9436
:1017C00024086B017C018091DC038093BB00809135
:1017D000030490910404A0910504B0910604892BA0
:1017E0008A2B8B2BA1F00E942408809003049090F8
:1017F0000404A0900504B09006046C197D098E09BC
:101800009F0986169706A806B90608F442C080917B
:10181000BC0083FDD8CF85EC8093BC000E942408D7
:101820006B017C0180910104813009F440C08091FA
:10183000FE0381115EC08091FE03ADEDB3E0E1E7F0
:10184000F3E090E0981751F12D9121939F5FFACF2B
:101850008091030490910404A0910504B0910604C2
:10186000892B8A2B8B2B09F48BCF0E942408809024
:10187000030490900404A0900504B09006046C1931
:101880007D098E099F0986169706A806B90608F0F5
:1018900077CF809102040E94030880E01092DA035F
:1018A0008093D903811127C0FFCF85EEB5CF8091FA
:1018B000030490910404A0910504B0910604892BBF
:1018C0008A2B8B2B09F4AECF0E942408809003044E
:1018D00090900404A0900504B09006046C197D0952
:1018E0008E099F0986169706A806B90608F09ACFB2
:1018F000D0CF81E0A2CF8BE294E00E940C07F801E8
:101900008183CF911F910F91FF90EF90DF90CF9047
:10191000BF90AF909F908F900895AF92BF92CF925B
:10192000DF92EF92FF920F931F93CF93DF9389EF94
:10193000A82E84E0B82E10E000E0D0E0C0E0CC2477
:10194000C394D12C8091F7049091F80408171907DB
:10195000F4F4F501E190F1905F0188ED94E00E94CC
:10196000AC0B8091D90490E00E2C02C09595879520
:101970000A94E2F780FD08C0C60102C0880F991FD3
:10198000EA94E2F7C80FD91F0F5F1F4FDBCFCE01DC
:10199000DF91CF911F910F91FF90EF90DF90CF904B
:1019A000BF90AF9008958F929F92AF92BF92CF92C7
:1019B000DF92EF92FF920F931F93CF93DF93E3E7B2
:1019C000F5E080E4DF011D928A95E9F70E946C0939
:1019D0006B017C01D0E0C0E010E000E00E946C09E7
:1019E0006C197D098E099F0980906F059090700594
:1019F000A0907105B0907205681579058A059B0560
:101A000008F048C00034110509F444C087E394E0AD
:101A10000E94090A892B11F387E394E00E94E709E9
:101A2000F801EA5BFA4F85A720912406309125063C
:101A3000C217D30740F520912006309121062115C9
:101A4000310509F12C0F3D1FD9019C9189131DC04F
:101A50002196C430D105D9F416A683E795E090937A
:101A60000D0680930C061092F30581E0DF91CF9173
:101A70001F910F91FF90EF90DF90CF90BF90AF90AC
:101A80009F908F90089590E0E1CFD0E0C0E00F5F8D
:101A90001F4FA4CF80E0EACFFB0101900020E9F7BF
:101AA0003197AF01461B570BDC01ED91FC91028091
:101AB000F381E02D09948F929F92AF92BF920F9382
:101AC0001F93CF93DF93CDB7DEB7A1970FB6F894EE
:101AD000DEBF0FBECDBF19A2423008F44AE08E012E
:101AE0000F5D1F4F842E912CB12CA12CA5019401C8
:101AF0000E946722E62FB901CA01EA3004F5E05DD1
:101B0000D801EE938D01232B242B252B79F790E020
:101B100080E0109729F0BD0187E394E00E944C0D0E
:101B2000A1960FB6F894DEBF0FBECDBFDF91CF9167
:101B30001F910F91BF90AF909F908F900895E95C97
:101B4000DFCFCF92DF92EF92FF92CF93DF936B01C3
:101B50007C016DE287E394E00E944B0AEC0166276A
:101B60007727CB016C197D098E099F094AE00E94F5
:101B70005B0D8C0F9D1FDF91CF91FF90EF90DF9059
:101B8000CF90089562E572E00C944C0D0F931F9373
:101B9000CF93DF938C01D0E0C0E06115710519F09F
:101BA0000E944C0DEC01C8010E94C20D8C0F9D1FBC
:101BB000DF91CF911F910F9108950F931F93CF93B2
:101BC000DF93EC010E9479098C01CE010E94C20DC5
:101BD000800F911FDF91CF911F910F910895CF93A7
:101BE000C82F61E08EE00E94820780916D05909180
:101BF0006E058230910538F0880F991F880F991F64
:101C000005970197F1F763EB75E087E394E00E9495
:101C10004C0D60E276E087E394E00E94DD0D87E3FF
:101C200094E00E94C20D87E394E00E94980A80919C
:101C30006D0590916E058230910538F0880F991FDF
:101C4000880F991F05970197F1F760E08EE00E94D9
:101C50008207C11102C01092B305CF910895CF93AE
:101C6000DF93EB0162E0680F88EF95E00E94C80403
:101C700088EF95E00E944905BE0188EF95E0DF916D
:101C8000CF910C94DD0DCF93DF93EC01BC0188EF75
:101C900095E00E94DD0DBE0187E394E00E94DD0D1A
:101CA00087E394E0DF91CF910C94980A0F931F93F0
:101CB000CF93DF93EC010E9487098C01CE010E9433
:101CC000C20D800F911FDF91CF911F910F91089549
:101CD0002091D6013091D70190E080E041E050E0C2
:101CE000BA01082E02C0660F771F0A94E2F7621746
:101CF000730724F1909365038093640365E572E0B4
:101D000087E394E00E944C0D609164037091650339
:101D1000072E000C880B990B97FF0CC00E94A10D99
:101D200087E394E00E94C20D68EE73E080E090E0EB
:101D30000C9439094AE00E945B0DF2CF01968B307A
:101D4000910571F66FE770E087E394E00E94560E0C
:101D5000A89560E87EE380E090E0EACFA3EBB5E0F1
:101D60000D900020E9F7FC0101900020E9F7319780
:101D7000E81BF90BEA0FFB1FE25BF540E134F105CC
:101D800068F4BC0183EB95E00E94A82463E572E04F
:101D900083EB95E00E94A82481E0089580E00895F7
:101DA00085ED8093BC008091030490910404A09180
:101DB0000504B09106040796A11DB11D23E0B69558
:101DC000A795979587952A95D1F72091BC0024FD7A
:101DD00003C010920104089540910304509104043B
:101DE0006091050470910604452B462B472B69F33F
:101DF0000097A105B10541F025E32A95F1F7000010
:101E00000197A109B109E1CF809102040C94030864
:101E10000F931F93CF93DF938C0106571F4FF80149
:101E20002081EC01CD55DF4F63E572E0222389F07C
:101E300090E080E00E94B0219983888381E028812E
:101E40003981232B09F480E0DF91CF911F910F910D
:101E500008950A960E94B0219983888381E0F80151
:101E60008083ECCFEF92FF920F931F93CF93DF937A
:101E7000CDB7DEB763970FB6F894DEBF0FBECDBF08
:101E80007C018B0161E070E080E090E00E94390904
:101E90001092B30517FF04C0009148051091490541
:101EA0001A821982FE0133968EE0DF011D928A9517
:101EB000E9F76091320670913306CE0101960E94D7
:101EC000B3241A8A198A1B8A1F930F9381E692E022
:101ED0009F938F938E010F5E1F4F1F930F930E944E
:101EE000C824B801CE0101960E94A824CE01019613
:101EF0000E94AE0E0F900F900F900F900F900F90CA
:101F0000F701808111E0882379F0C7010E94AE0EAD
:101F1000182F80E2E82EF12C111114C064E672E053
:101F200087E394E00E94C60D812F63960FB6F89464
:101F3000DEBF0FBECDBFDF91CF911F910F91FF90FC
:101F4000EF90089581E00E94EF0D0E94D30C609104
:101F50000C0670910D0687E394E00E94C60D409137
:101F60002A0650912B0660910C0670910D06809107
:101F70002606909127060E949224892B19F410922C
:101F8000B305D2CF89E695E00E94080F8111DFCF1B
:101F9000A89565E070E080E090E00E943909F1E0EA
:101FA000EF1AF10879F610E0BFCF2F923F924F92CF
:101FB0005F926F927F928F929F92AF92BF92CF92D9
:101FC000DF92EF92FF920F931F93CF93DF93CDB7E2
:101FD000DEB7ED970FB6F894DEBF0FBECDBF3C0164
:101FE000562E472E4A012CAF3DAF1A821982FE01B0
:101FF00033968EE2DF011D928A95E9F71AAE19AE8B
:102000001BAE1F9285E08F9381E692E09F938F93A2
:102010005E01B9E3AB0EB11CBF92AF920E94C8241F
:1020200060913E0670913F06CE0101960E94B32456
:10203000B501CE0101960E94A82460912C067091F2
:102040002D06CE0101960E94A8244AE0BE016F5CD5
:102050007F4FC6010E94E721BE016F5C7F4FCE011A
:1020600001960E94A82469E972E0CE0101960E94BF
:10207000A824252C342C0F900F900F900F900F90C8
:102080000F90D12CC12C94E6A92EB12CF1012191F5
:1020900031911F01289DC001299D900D389D900D03
:1020A0001124B5010E945322CB014AE0BE016A5CB3
:1020B0007F4F0E94E721BE016A5C7F4FCE010196EF
:1020C0000E94A824F2E0CF16D10431F069E972E051
:1020D000CE0101960E94A8248FEFC81AD80AA3E067
:1020E000CA16D10499F669E972E0CE0101960E9400
:1020F000A8248CAC9DACD12CC12C84E6A82EB12C8C
:10210000F401219131914F01209FC001219F900D39
:10211000309F900D1124B5010E945322CB014AE05B
:10212000BE016A5C7F4F0E94E721BE016A5C7F4F5F
:10213000CE0101960E94A824F2E0CF16D10431F01E
:1021400069E972E0CE0101960E94A8248FEFC81AB7
:10215000D80AA3E0CA16D10499F669E972E0CE0163
:1021600001960E94A8244AE0BE016F5C7F4FC70120
:102170000E94E721BE016F5C7F4FCE0101960E9455
:10218000A824B301CE0101960E94320FED960FB63E
:10219000F894DEBF0FBECDBFDF91CF911F910F919D
:1021A000FF90EF90DF90CF90BF90AF909F908F9077
:1021B0007F906F905F904F903F902F9008958F92F7
:1021C0009F92AF92BF92CF92DF92EF92FF920F93C6
:1021D0001F93CF93DF93CDB7DEB7E6970FB6F89492
:1021E000DEBF0FBECDBF6C014B015A011A821982AE
:1021F000FE0133968EE2DF011D928A95E9F71DAA52
:102200001CAA1EAA1F921F9281E692E09F938F93B1
:102210008E010C5C1F4F1F930F930E94C824609186
:102220003E0670913F06CE0101960E94B324B8018C
:10223000CE0101960E94A82460912C0670912D0673
:10224000CE0101960E94A82474010F900F900F9068
:102250000F900F900F9010E000E084E6882E912CF4
:10226000F701219131917F012A9DC0012B9D900D95
:102270003A9D900D1124B4010E945322CB014AE0F3
:10228000BE016F5C7F4F0E94E721BE016F5C7F4FF4
:10229000CE0101960E94A8240230110531F069E9AF
:1022A00072E0CE0101960E94A8240F5F1F4F0330F9
:1022B0001105B1F6B601CE0101960E94320FE696E5
:1022C0000FB6F894DEBF0FBECDBFDF91CF911F9147
:1022D0000F91FF90EF90DF90CF90BF90AF909F90C5
:1022E0008F900895DF92EF92FF920F931F93CF93F9
:1022F000DF93CDB7DEB72D970FB6F894DEBF0FBED4
:10230000CDBFD82E7B011A821982FE01339688E058
:10231000DF011D928A95E9F71C861B861D86609158
:102320003A0570913B05CE0101960E94B32460915D
:102330002C0670912D06CE0101960E94A8248E01D4
:10234000055F1F4FDD2049F11F9282E08F9387E7E1
:1023500092E09F938F931F930F930E94C8240F9036
:102360000F900F900F900F900F90B801CE01019633
:102370000E94A824B701CE0101960E94320F2D962B
:102380000FB6F894DEBF0FBECDBFDF91CF911F9186
:102390000F91FF90EF90DF9008951F9283E0D6CFCA
:1023A000CF93DF93EC0188819981009711F00E940F
:1023B0003F23198218821D821C821B821A82DF91A0
:1023C000CF910895FC0180819181009711F00C94C8
:1023D0003F2308950E948524CF93DF93FC01C081A1
:1023E000D181209761F08991882349F0082E000C53
:1023F000990B0E948A24FE0131978083F4CFDF91EC
:10240000CF9108950F931F93CF93DF93EC018881B1
:102410009981009759F02A813B812617370730F0C0
:1024200081E0DF91CF911F910F9108958B016F5F34
:102430007F4F0E94C823009759F0998388831B839C
:102440000A832C813D81232B59F7FC011082E8CFB0
:1024500080E0E7CFEF92FF920F931F93CF93DF932C
:102460006115710541F480E0DF91CF911F910F91CB
:10247000FF90EF90089541155105B1F07B01EC01FB
:102480000C811D81040F151FB8010E9402128823C0
:1024900051F3288139818C819D81B701820F931F6F
:1024A0000E94B3241D830C8381E0DECFCF93DF93A2
:1024B000EC0141E050E06BED72E00E942A128111C4
:1024C00003C0CE010E94D011CE01DF91CF910895BB
:1024D000EF92FF920F931F93CF93DF93EC017B0159
:1024E0008A01BA010E94021281110BC0CE010E9422
:1024F000D011CE01DF91CF911F910F91FF90EF90FE
:1025000008951D830C83B701888199810E94B324AB
:10251000F0CFFB01DC0111961C921E9213961C92C7
:102520001E92129715961C921E9214978617970763
:1025300049F0608171816115710521F044815581F7
:102540000C9468120895AF92BF92CF92DF92EF92EF
:10255000FF920F931F93CF93DF9300D000D000D052
:10256000CDB7DEB78C010E942E0581EC93E09093ED
:1025700007068093060688EF95E00E94B60401974F
:1025800009F059C01092010662E088EF95E00E94C0
:10259000C804B801CE0101960E94891209811A81EE
:1025A000F12CE12CF801C1908F01CC2049F08091F1
:1025B000060690910706009709F041C0F12CE12C26
:1025C0006091FE0570E06E197F097695679588EF3A
:1025D00095E00E94D704BE016F5F7F4F88EF95E0C2
:1025E0000E94DD0DCE0101960E94E2118BED91E07B
:1025F000909307068093060688EF95E00E94B60444
:10260000019709F056C01092010664E088EF95E04A
:102610000E94C80426960FB6F894DEBF0FBECDBF49
:10262000DF91CF911F910F91FF90EF90DF90CF90AE
:10263000BF90AF90089581E080930106A5CFFC0183
:102640003496A4903196E491CA1408F4B7CFD12CF3
:10265000B12CEA0DFB2DF11DCE16DF060CF0AECF2E
:1026600088EF95E00E94B604E0910606F091070617
:10267000209109060297D8F086E0C80ED11CCA182E
:10268000DB08EC0DFD1DE491E29FE02D1124EE230B
:1026900009F494CF8091010690910906899F802DBD
:1026A00011248E0F9927991FE80EF91E7BCF3296C1
:1026B000EACF81E080930106A8CFFC01118210824D
:1026C0001382128215821482FB0101900020E9F727
:1026D0003197AF01461B570B0C946812EF92FF9293
:1026E0000F931F93CF93DF93CDB7DEB762970FB6EB
:1026F000F894DEBF0FBECDBF8C01CB01F801118273
:102700001082138212821582148250E09E012F5F84
:102710003F4F7901B9010E94DC21F70101900020AF
:10272000E9F73197AF014E195F09B701C8010E945F
:10273000681262960FB6F894DEBF0FBECDBFDF9170
:10274000CF911F910F91FF90EF900895EF92FF921C
:102750000F931F93CF93DF93EC018B0119821882A3
:102760001B821A821D821C82CB010E94A7217C0140
:10277000BC01CE010E940212811109C0CE01DF917D
:10278000CF911F910F91FF90EF900C94D011FD828B
:10279000EC82B80188819981DF91CF911F910F91CF
:1027A000FF90EF900C94A0211F920F920FB60F9202
:1027B00011242F933F934F935F936F937F938F9346
:1027C0009F93AF93BF93EF93FF938091B900887F5E
:1027D000803609F44AC0F0F5883209F4A7C018F52C
:1027E000803109F49BC0B8F4882309F4F9C088301B
:1027F00009F494C0FF91EF91BF91AF919F918F9198
:102800007F916F915F914F913F912F910F900FBEEC
:102810000F901F901895883109F488C0803251F7C5
:102820008093FF0314C0803409F49DC040F48033CA
:10283000B9F38833F9F68093FF0385ECB0C0803597
:1028400009F485C0883509F496C0883499F60E9449
:10285000D00ED0CF883909F48CC038F5883729F0EC
:1028600050F4883611F0803729F683E08093010414
:102870001092D40357C0883809F47BC0803919F00E
:10288000803809F0B7CF8091D403803208F071C04E
:10289000E091D40381E08E0F8093D4038091BB003C
:1028A000F0E0EC54FC4F80833DC0803B39F0E0F415
:1028B000803A09F479C0883A09F09CCF84E080938B
:1028C00001041092B3031092B203E091D703F09188
:1028D000D80309958091B20381110FC081E08093E4
:1028E000B2031092920309C0803C09F4A6CF883C41
:1028F00009F4A3CF883B09F07DCFE091B30381E0D9
:102900008E0F8093B303F0E0EE56FC4F80818093EE
:10291000BB009091B3038091B20329C08091DC0386
:102920008093BB0085EC8093BC0064CF9091FE0344
:102930008091FD03981758F5E091FE0381E08E0F1A
:102940008093FE03F0E0E352FC4F8081E9CFE091F9
:10295000FE0381E08E0F8093FE038091BB00F0E0C8
:10296000E352FC4F80839091FE038091FD03981702
:10297000C8F285E8D8CFE091FE0381E08E0F809306
:10298000FE038091BB00F0E0E352FC4F8083809116
:10299000000481115CCF81E08093DB0384EA8093A3
:1029A000BC001092010426CF85EC8093BC001092ED
:1029B00001048091D403803230F4E091D403F0E03C
:1029C000EC54FC4F10826091D40370E0E091D50389
:1029D000F091D60384EB93E009951092D4030ACFCB
:1029E0001092FF0334CF1F920F920FB60F92112453
:1029F0002F933F938F939F93AF93BF9380916903DE
:102A000090916A03A0916B03B0916C0330916803BD
:102A100023E0230F2D3758F50196A11DB11D2093FA
:102A200068038093690390936A03A0936B03B09348
:102A30006C0380916D0390916E03A0916F03B09130
:102A400070030196A11DB11D80936D0390936E03D9
:102A5000A0936F03B0937003BF91AF919F918F913B
:102A60003F912F910F900FBE0F901F90189526E861
:102A7000230F0296A11DB11DD2CF1F920F920FB648
:102A80000F9211242F933F934F935F936F937F93F4
:102A90008F939F93AF93BF93EF93FF9387E394E05C
:102AA0000E94290AFF91EF91BF91AF919F918F9161
:102AB0007F916F915F914F913F912F910F900FBE3A
:102AC0000F901F9018951F920F920FB60F9211241E
:102AD0002F938F939F93EF93FF93E0914704F0918F
:102AE00048048081E0914D04F0914E0482FD1BC0AA
:102AF0009081809150048F5F8F73209151048217D1
:102B000041F0E0915004F0E0E95CFB4F958F809339
:102B10005004FF91EF919F918F912F910F900FBED5
:102B20000F901F9018958081F4CF1F920F920FB6CF
:102B30000F9211242F933F934F935F936F937F9343
:102B40008F939F93AF93BF93EF93FF9382E00E9485
:102B5000890BFF91EF91BF91AF919F918F917F91E1
:102B60006F915F914F913F912F910F900FBE0F90FA
:102B70001F9018951F920F920FB60F9211242F934A
:102B80003F934F935F936F937F938F939F93AF93F5
:102B9000BF93EF93FF9381E00E94890BFF91EF9128
:102BA000BF91AF919F918F917F916F915F914F9165
:102BB0003F912F910F900FBE0F901F9018951F926D
:102BC0000F920FB60F9211242F933F934F935F9361
:102BD0006F937F938F939F93AF93BF93EF93FF93E5
:102BE00080E00E94890BFF91EF91BF91AF919F917F
:102BF0008F917F916F915F914F913F912F910F90A6
:102C00000FBE0F901F901895CF93DF93FC01108299
:102C1000118212821382148215821682EC01279689
:102C2000DC011F961992AC17BD07E1F77F961D9244
:102C30001D92EA17FB07D9F7DF91CF910895CF9343
:102C4000DF93EBE2F4E01382128288EE93E0A0E0DF
:102C5000B0E084839583A683B78324E232E0318396
:102C60002083E7E3F4E01382128284839583A683B2
:102C7000B78386E392E09183808385EC90E095872B
:102C8000848784EC90E09787868780EC90E0918B36
:102C9000808B81EC90E0938B828B82EC90E0958B23
:102CA000848B86EC90E0978B868B118E128E138E20
:102CB000148E6AE772E086E596E00E945D1361E893
:102CC00072E080E596E00E945D1367E872E08AE4B6
:102CD00096E00E945D136EE872E084E496E00E9444
:102CE0005D1365E972E08EE396E00E945D136BE987
:102CF00072E088E396E00E945D1361EA72E082E38D
:102D000096E00E945D1369E972E08CE296E00E9411
:102D10005D1367EA72E086E296E00E945D136CEA5A
:102D200072E080E296E00E945D1361EB72E08AE15E
:102D300096E00E945D1367EB72E084E196E00E94EA
:102D40005D136FEB72E08EE096E00E945D1367EC1E
:102D500072E08AE395E00E945D136FEC72E080E41C
:102D600095E00E945D138BE195E00E940416C6E495
:102D7000D5E088E090E0998388838FEF9FEF9B8375
:102D80008A838AE495E00E9404168AE090E0A0E03D
:102D9000B0E08BA39CA3ADA3BEA382E390E098A771
:102DA0008FA38EE190E0A0E0B0E089A79AA7ABA73F
:102DB000BCA710927405109273052EE3E5E7F5E0C9
:102DC000EF01322F19923A95E9F71092B40510925B
:102DD000B305E5EBF5E0EF0119922A95E9F71092BA
:102DE000F3058093F4059093F505A093F605B09351
:102DF000F7051092FB051092FA0510920406109246
:102E0000050610920706109206061092080681E049
:102E10008093090688E492E09093F9058093F80581
:102E200088ED94E00E94041680E1E9EFF4E0DF0110
:102E3000C82F1D92CA95E9F7E9E0F5E0DF011D9280
:102E40008A95E9F70E946C096093D4047093D504C5
:102E50008093D6049093D704DF91CF910895CF93B8
:102E6000DF93CDB7DEB7C656D1090FB6F894DEBFF3
:102E70000FBECDBF789484B5826084BD84B5816077
:102E800084BD85B5826085BD85B5816085BD809135
:102E90006E00816080936E001092810080918100AD
:102EA00082608093810080918100816080938100A5
:102EB000809180008160809380008091B100846067
:102EC0008093B1008091B00081608093B0008091C8
:102ED0007A00846080937A0080917A008260809387
:102EE0007A0080917A00816080937A0080917A00E4
:102EF000806880937A001092C1000E94EC0788E4F9
:102F00008093B800E0914704F091480482E0808308
:102F1000E0914704F09148041082E0914304F0915D
:102F200044041082E0914504F091460480E18083DE
:102F300010924F04E0914B04F0914C0486E08083A2
:102F4000E0914904F0914A04808180618083E0919E
:102F50004904F0914A04808188608083E0914904AB
:102F6000F0914A04808180688083E0914904F09167
:102F70004A0480818F7D80838091690590916A05E4
:102F8000A0916B05B0916C0580933B0490933C0439
:102F9000A0933D04B0933E0464E670E080E090E0CE
:102FA0000E943909E1EBF1E02491EDE9F1E084912F
:102FB000882399F090E0880F991FFC01EA59FE4F91
:102FC000A591B491FC01EB57FE4F859194918FB779
:102FD000F894EC91E22BEC938FBF60E08EE00E94BE
:102FE00082076BE471E087E394E00E94870940E187
:102FF0006CE370E080E090E00E945B0D87E394E07A
:103000000E94C20D6AE070E080E090E00E94390901
:1030100010920B068CE380930A061092FC05109226
:10302000FD05E5E4F1E085919491E82EE7E4F1E017
:10303000F490E8E4F1E0E491E093FE05E9E4F1E0E6
:10304000E491E093FF05EAE4F1E0E491E093000607
:103050008C01802F8E198F1548F4F801649188EF48
:1030600095E00E94C0040F5F1F4FF3CF0E942E0512
:10307000109204068BED91E090930706809306066C
:1030800088EF95E00E94B604019709F0C1C0109244
:1030900001060E942E056AE371E087E394E00E9436
:1030A000560E6AE070E080E090E00E94390961E22B
:1030B00071E088EF95E00E94560E6AE071E088EFBB
:1030C00095E00E94560E63EF70E088EF95E00E9455
:1030D000560E6CE271E080E090E00E94390987E3CF
:1030E00094E00E94C20D0E942E0564E572E0CE01BC
:1030F0008F5A9F4F0E945D1338E0C32ED12CEE24CF
:10310000E3948E010F5F1F4FFC2CE0920704C092E6
:1031100029041092080410922A0481E00E944908B0
:103120008111A4C060EF70E0C8010E94A613C8011D
:103130000E94B80AC8010E94E2111AAA19AA1CAA80
:103140001BAA1EAA1DAA40E1B801C6010E94F221D5
:10315000F80101900020E9F73197AF01401B510BB6
:10316000B801CE01C1960E94681263968EAD9FADE4
:103170006397009709F452C069A97AA9611571058E
:1031800009F44AC065964EAD5FAD65972DA93EA97D
:103190004217530708F440C00E94B3248DA99EA98A
:1031A00067969FAF8EAF67971EAA1DAACE01C196E4
:1031B0000E94E211CE018F5A9F4F0E94EC11BE0176
:1031C0006F5A7F4FC8010E948912C8010E94B80A35
:1031D000C8010E94E2116EEE70E0C8010E94A613C1
:1031E000C8010E94B80AC8010E94E211E8ECEF0D84
:1031F000E83008F0B2C1F0E0E050F74E0C948922BC
:1032000025199B1A9E1AA11AA41AA71AAD1AAA1A4E
:1032100081E0809301063DCF0E943F2389A99AA9AE
:1032200063969FAF8EAF63978BA99CA965969FAF5E
:103230008EAF65978DA99EA967969FAF8EAF679752
:103240001AAA19AA1CAA1BAAAFCF6DED70E0C8017B
:103250000E94A613C8010E94430EC8010E94E211F9
:1032600061E070E080E090E00E943909FFEFCF1A42
:10327000DF0A28E7C216D10409F046CF68EB7BE0ED
:1032800080E090E00E943909CE018F5A9F4F0E9442
:10329000E21140E16FE370E0CE01835A9F4F0E943C
:1032A0006E13CE01835A9F4F0E94EC1166ED72E0BF
:1032B000CE0101960E945D13A3964EAD5FADA3971C
:1032C0006F966EAD7FAD6F97CE0101960E942A1268
:1032D000811104C0CE0101960E94D0113E0181E30C
:1032E000680E711CBE016F5F7F4FC3010E9489127F
:1032F000C3010E94A312C3010E94E211CE010196F4
:103300000E94E2118FE380934D050E94EC078AE44E
:1033100095E00E94AC0B2E0197E5490E511C64E527
:1033200072E0C2010E945D1364E572E0CE018F5A23
:103330009F4F0E945D1320914C0581E090E000902A
:103340005F0302C0880F991F0A94E2F7922F982B0F
:1033500090934C0590914A058095892380934A0566
:103360008AE495E00E94090B4091100160915F038F
:103370008AE495E00E94210B60915F0370916003E5
:103380004AE0CE0101960E946E13BE016F5F7F4F2F
:10339000C3010E948912C3010E945612FC0144819C
:1033A000558160817181C2010E942A12C3010E946D
:1033B000E211CE0101960E94E2116091100170911C
:1033C00011014AE0CE0101960E946E13BE016F5FAB
:1033D0007F4FC3010E948912C3010E945612FC0153
:1033E0004481558160817181CE018F5A9F4F0E9427
:1033F0002A12C3010E94E211CE0101960E94E2113D
:10340000B201CE0101960E948912BE016F5F7F4F0B
:1034100082E00E942F0ECE0101960E94E211BE01B1
:103420006F5A7F4FCE0101960E948912BE016F5FD5
:103430007F4F83E00E942F0ECE0101960E94E21181
:1034400064EF71E080E090E00E943909CE018F5A6C
:103450009F4F0E94E211C2010E94E211CE01835AE5
:103460009F4F0E94E21184E090E09093F8048093D3
:10347000F70490931A058093190588E0E0E0F1E0E5
:10348000A9E0B5E001900D928A95E1F788E0E8E0C7
:10349000F1E0A9EFB4E001900D928A95E1F78DE398
:1034A0008093DB040E94EC0788ED94E00E94AC0B53
:1034B00008E011E0F12CE12CCC24C394D12C8091B4
:1034C000F7049091F804E816F9060CF449C000E0FE
:1034D00011E0F12CE12CCC24C394D12C809119055E
:1034E00090911A05E816F9060CF05FC02091DA04F5
:1034F000C601F801008002C0880F991F0A94E2F704
:10350000922F982B9093DA049091D8048095892378
:103510008093D80488ED94E00E94090B41E0F80103
:10352000608188ED94E00E94210BFFEFEF1AFF0A03
:103530000E5F1F4FD3CF63ED70E089CE69EC70E072
:1035400086CE6FEB70E083CE6FEA70E080CE6AEAE1
:1035500070E07DCE64EA70E07ACE6CE970E077CE00
:103560002091DA04C601F801008002C0880F991F7B
:103570000A94E2F78095922F98239093DA04909121
:10358000D80489238093D80488ED94E00E94090B25
:1035900041E0F801608188ED94E00E94210BFFEF8B
:1035A000EF1AFF0A0E5F1F4F8ACF6DED72E087E3BF
:1035B00094E00E94C60D0E94A10B81E090E09093E0
:1035C0004705809346050E94680E10E000E0BDE3C9
:1035D000DB2EEE24E394F12CD0921E050E94EC0722
:1035E0008BE195E00E94AC0B20911D05C701002ED8
:1035F00001C0880F0A94EAF78095922F9823909340
:103600001D0590911B05892380931B058BE195E097
:103610000E94090B41E0602F8BE195E00E94210B95
:103620000F5F1F4F04301105B9F6A89568EE73E0DF
:1036300080E090E00E9439094091100160E08AE446
:1036400095E00E94210B10926103CE01C396A596CE
:103650009FAF8EAFA5971E0193E0290E311C80917C
:103660004805909149050196909349058093480536
:1036700020914605309147058217930724F0109258
:103680004905109248051A8219828EE0F1011192C3
:103690008A95E9F76091380670913906CE01019656
:1036A0000E94B3241AAA19AA1BAA809149058F93D4
:1036B000809148058F9381E692E09F938F937F924C
:1036C0006F920E94C824B301CE0101960E94A824E3
:1036D000CE0101960E94AE0E80E00E94EF0D0E9486
:1036E000D30C90E090936703809366030E946C096B
:1036F0000F900F900F900F900F900F900091D404A7
:103700001091D5042091D6043091D7046017710729
:1037100082079307A8F08091D8019091D901209158
:10372000D6013091D7018217930751F48032910569
:1037300009F0BCC080E490E09093D7018093D6015B
:103740008091660390916703892B09F44DC1F2E0E3
:10375000AF2EB12CACE18A2EA1E09A2E89E695E03D
:103760000E94080F882309F43FC1E0904806F090BA
:10377000490600910C0610910D06A701B801809131
:103780004406909145060E94BA24892B39F7C80156
:103790008E0D9F1D90930D0680930C0660912C0654
:1037A00070912D060E94B0216C0190930D068093BC
:1037B0000C066AEE72E087E394E00E944C0DB601BD
:1037C00087E394E00E94C60D0091D6011091D701C5
:1037D000C80180729370892B09F4FDC0E2E1F1E029
:1037E00001900020E9F7AF0143515140B60182E159
:1037F00091E00E94BA247C01892B09F449C5F401A7
:1038000001900020E9F7AF014D515140B6018CE124
:1038100091E00E94BA24892B09F0DDC00032110525
:1038200009F449C5EE24E394F12C0E946C09685414
:10383000744F8F4F9F4F6093D4047093D50480933F
:10384000D6049093D7040115F1E01F0709F049C091
:103850008BE195E00E94AC0B80911C0583FF41C079
:10386000109263031092620366EF72E087E394E0C4
:103870000E94C60D69E073E087E394E00E94C60DE4
:1038800080910C0690910D06892B09F4A4C08091BB
:10389000D6019091D70188279370892B09F0A2C097
:1038A000609148057091490581E09AC0882793701E
:1038B000892B09F445CF8091620390916303892B92
:1038C00009F43ECF109263031092620370E060E04F
:1038D00080E00E94721161E070E080E00E9472114D
:1038E0002FCF2091620330916303C7010196822B91
:1038F000932B833091052CF49093630380936203A0
:10390000B9CF1092630310926203011521E01207F0
:10391000F9F00115124009F444C070E060E081E064
:103920000E94721161E070E081E00E947211A8951E
:1039300064EF71E080E090E00E9439090E946A0B18
:1039400064E971E180E090E00E943909A89592CF86
:1039500080914A05816080934A058AE495E00E943F
:10396000090B64E670E080E090E00E9439098091E4
:10397000480590914905892B71F4EA94EF2871F07C
:1039800080E390E00E94320B80E092E09093D701B8
:103990008093D601C2CFEA94EF2891F380E590E0BE
:1039A000F1CF80914A058E7F80934A058AE495E0A5
:1039B0000E94090B64E670E080E090E00E94390903
:1039C00080E890E00E94320BE0E0F1E0F093D70154
:1039D000E093D601A2CF609148057091490580E03F
:1039E0000E947211A895BACE8091D6019091D7010C
:1039F0008230910579F59093D9018093D8010E9486
:103A00008D0C8C0162E070E080E090E00E9439094A
:103A10000E948D0C0817190711F010E000E0077FD5
:103A20000230110589F00430110509F4D4C00130C9
:103A3000110581F4809161038111E9C081E08093D7
:103A4000610380E094E002C084E090E09093D701AD
:103A50008093D6012091D8013091D9018091D6016F
:103A60009091D7012817390709F4D1C064E173E0B8
:103A700087E394E00E944C0D6091D6017091D701CC
:103A8000072E000C880B990B97FFA8C00E94A10D70
:103A900087E394E00E94C20D0E94680E8091640347
:103AA0009091650397FF0CC060E771E087E394E0B5
:103AB0000E94560E68E97AE380E090E00E9439099E
:103AC0008091D6019091D7019093D9018093D8012C
:103AD00010E000E04EE0942E56E0A52E67E7E62EBB
:103AE00062E0F62E7EE1D72E809146059091470543
:103AF000081719070CF076C0E0916403F091650394
:103B0000EE0FFF1FE65FFD4FC080B1801A82198261
:103B1000F101292D11922A95E9F7609156067091CD
:103B20005706CE0101960E94B3241AAA19AAA59697
:103B3000EEADFFADA5972A2D11922A95E9F7BF9218
:103B4000CF92FF92EF927F926F920E94C824B301AE
:103B5000CE0101960E94A824B801CE0101960E94D0
:103B6000320F1A821982F1012D2D11922A95E9F74F
:103B70006091400570914105CE0101960E94B324E9
:103B800060912C0670912D06CE0101960E94A8240A
:103B9000609164037091650334E0660F771F3A9576
:103BA000E1F76A5D7E4FCE0101960E94A824B8011C
:103BB000CE0101960E94320F65E070E080E090E057
:103BC0000E9439090F5F1F4F0F900F900F900F90B9
:103BD0000F900F9089CF88E090E038CF4AE00E94A4
:103BE0005B0D56CF0E946A0BA8958091D6019091EB
:103BF000D7018034910509F47CC20CF039C18430BE
:103C0000910509F4ACC1BCF4019709F495C165E0D4
:103C100070E080E090E00E943909A89580E090E093
:103C2000892B09F41CCD0E94150A882309F413CDB1
:103C30000E94000010CD8830910509F42EC208E0E2
:103C400017E0FAE0EF2EF12CA1E68A2EA2E09A2EE0
:103C50004097E9F65801043111051CF4E2E3AE2E59
:103C6000B12C1A821982F1012EE211922A95E9F7FC
:103C7000F2011182108212821F92F1E0FF939F9253
:103C80008F925F924F920E94C82460913E0670917D
:103C90003F06CE0101960E94B324B201CE010196E7
:103CA0000E94A82460912C0670912D06CE010196E9
:103CB0000E94A8241AAA19AAA596EEADFFADA59751
:103CC00023E011922A95E9F74AE0B30181E090E000
:103CD0000E94E721B301CE0101960E94A82469E960
:103CE00072E0CE0101960E94A82488EF91E0A79689
:103CF0009FAF8EAFA7970F900F900F900F900F90E0
:103D00000F90D12CC12CA796EEADFFADA7972191B6
:103D10003191A796FFAFEEAFA7972E9DC0012F9DC3
:103D2000900D3E9D900D112464E670E00E94532298
:103D3000CB014AE0BE016F5A7F4F0E94E721BE01CE
:103D40006F5A7F4FCE0101960E94A824F2E0CF1651
:103D5000D10431F069E972E0CE0101960E94A824F5
:103D60002FEFC21AD20A83E0C816D10461F660911F
:103D70002C0670912D06CE0101960E94A8244AE0DF
:103D8000B301C5010E94E721B301CE0101960E9453
:103D9000A82460912C0670912D06CE0101960E94F8
:103DA000A8244AE0B3018DE090E00E94E721B3012E
:103DB000CE0101960E94A82460912C0670912D06D8
:103DC000CE0101960E94A8244AE0B30190E080E071
:103DD0000E94E721B301CE0101960E94A82462E06F
:103DE00070E0CE0101960E94320F64E873E080E03B
:103DF00090E00E943909A8959AE0E90EF11C085C50
:103E00001109EEE6EE16F10409F024CF44E650E085
:103E100064E072E082E090E00E94DF1064E670E00F
:103E200080E090E00E943909CC24C394D12C7EEA32
:103E3000E72E7AE1F72E02E310E028EF31E044E6C6
:103E400050E062EF71E082E090E00E94D50F0E94A6
:103E50006C09605D7A488F4F9F4F6093D4047093D4
:103E6000D5048093D6049093D70480E290E03CC1BF
:103E70008115E1E09E0709F4EFC1B4F580389105A2
:103E800009F0C5CE42E350E06CEE71E082E090E0D4
:103E90000E94DF1080914A058E7F80934A058AE454
:103EA00095E00E94090B0FB6F894A89580916000E8
:103EB000886180936000109260000FBE68E873E133
:103EC00080E090E00E9439090E94A10B0E946A0BD9
:103ED000A89544E150E062EF71E082E090E00E943A
:103EE000DF1080E091E000C1811522E0920709F423
:103EF000C7C18115944009F08ACE83E0C82ED12C29
:103F000090E2E92E9EE4F92E04E110E026EE31E085
:103F100050E040E0B90183E090E00E94D50F82E0DC
:103F200090E09093D7018093D60160E47FE180E038
:103F300090E00E9439096BCE44E650E064E072E004
:103F400082E090E00E94DF1044E650E064E072E01E
:103F500083E090E00E94DF1082E090E0C5C00FB6E1
:103F6000F894A89580916000886180936000109219
:103F700060000FBECC24C394D12C80E1E82E87E2F0
:103F8000F82E02E310E02EEF31E044E650E064E06A
:103F900072E082E090E00E94D50F60E177E280E07D
:103FA00090E00E94390944E650E064E072E082E06B
:103FB00090E00E94DF1069E170E080E090E00E94F4
:103FC000390942E350E06EEF71E082E090E00E9438
:103FD000DF1062E370E080E090E00E94390944E67F
:103FE00050E064E072E082E090E00E94DF1069E15E
:103FF00070E080E090E00E94390948E250E06EEF06
:1040000071E082E090E00E94DF106CE370E080E0FD
:1040100090E00E94390944E650E064E072E082E0FA
:1040200090E00E94DF1069E170E080E090E00E9483
:10403000390943E250E06EEF71E082E090E00E94C7
:10404000DF1069E170E080E090E00E94390944E609
:1040500050E064E072E082E090E00E94DF1069E1ED
:1040600070E080E090E00E94390997EAE92E92E141
:10407000F92E10E000E02EEF31E04EE150E0B90102
:1040800082E090E00E94D50F67EA72E180E090E064
:104090000E9439090E94A10B5FCFCC24C394D12C7C
:1040A00010E1E12E17E2F12E00E510E02EEF31E0F5
:1040B00050E040E0B90182E090E00E94D50F0FB6D9
:1040C000F894A895809160008861809360001092B8
:1040D00060000FBE60E177E280E090E00E94390965
:1040E0000E94A10B80E190E09093D7018093D601CC
:1040F0008ECD44E650E064E072E082E090E00E9401
:10410000DF1062E370E080E090E00E94390944E64D
:1041100050E06EEF71E082E090E00E94DF1068EC0A
:1041200070E080E090E00E94390944E650E064E0ED
:1041300072E082E090E00E94DF1068EC70E080E0C6
:1041400090E00E943909CC24C394D12C30E4E32EB2
:104150003FE1F32E00E510E02EEF31E044E650E0C1
:10416000B90182E090E00E94D50F0E946C09605C6A
:10417000704E8F4F9F4F6093D4047093D5048093FB
:10418000D6049093D7041AAA19AA4EE1D42EA59664
:10419000EEADFFADA5972D2D11922A95E9F7E09090
:1041A0004005F0904105B701C3010E94B32400917E
:1041B0002C0610912D06B801C3010E94A82460911D
:1041C00064037091650354E0660F771F5A95E1F719
:1041D0006A5D7E4FC3010E94A8241A821982F101F0
:1041E0001192DA94E9F7B701CE0101960E94B32447
:1041F000B801CE0101960E94A8246EE173E0CE01C1
:1042000001960E94A8240E946C090091D404109188
:10421000D5042091D6043091D70460177107820726
:10422000930708F099CEA8956FEF7FEFC3010E9426
:10423000320F6CED75E080E090E00E9439096FEF7D
:104240007FEFCE0101960E94320F6CED75E080E0A9
:1042500090E00E943909D7CF109263031092620355
:1042600082E090E0909347058093460580914A054F
:104270008E7F80934A058AE495E00E94090BC7CCA3
:10428000109263031092620380914A058160F1CF1E
:104290000032110509F0C9CAE0E8F0E0F093D70157
:1042A000E093D60180E290E00E94320BB092470585
:1042B000A0924605DFCA80E890E09093D7018093F2
:1042C000D60180E490E0F0CF80E495E00E94E21116
:1042D0008AE395E00E94E2118EE096E00E94E211EE
:1042E00084E196E00E94E2118AE196E00E94E211E8
:1042F00080E296E00E94E21186E296E00E94E211DE
:104300008CE296E00E94E21182E396E00E94E211C4
:1043100088E396E00E94E2118EE396E00E94E211AB
:1043200084E496E00E94E2118AE496E00E94E211A1
:1043300080E596E00E94E21186E596E00C94E21199
:10434000FB01DC0105900D920020E1F70895FC01CE
:1043500005900020E9F7809590958E0F9F1F089596
:104360004CE556E00E94B5210895FA01A191B08173
:10437000009719F41097E1F0CD01DC01CD010D900B
:10438000002011F4C00113C0FB012191222319F078
:104390002015D9F7F3CFFB012191201519F41E92B6
:1043A000119606C02223C1F70D900020A1F7D0017D
:1043B000FA01A193B08308954532510520F44230AB
:1043C00010F00C94E721FB011082CB010895BB276C
:1043D0004A3031F4992322F4BDE2909581959F4FA4
:1043E0000C94F321BB27FB015527AA27880F991F9F
:1043F000AA1FA41710F0A41B83955051B9F7A05D14
:10440000AA3308F0A95DA193009779F7B111B19390
:104410001192CB010C940C22DC01FC01672F7191ED
:104420007723E1F7329704C07C916D93708362919A
:10443000AE17BF07C8F308952F923F924F925F9235
:104440006F927F928F929F92AF92BF92CF92DF92A4
:10445000EF92FF920F931F93CF93DF93CDB7DEB709
:10446000CA1BDB0B0FB6F894DEBF0FBECDBF09949D
:104470002A88398848885F846E847D848C849B84F4
:10448000AA84B984C884DF80EE80FD800C811B8102
:10449000AA81B981CE0FD11D0FB6F894DEBF0FBE31
:1044A000CDBFED01089597FB072E16F4009407D0B9
:1044B00077FD09D00E948F2207FC05D03EF490952D
:1044C00081959F4F0895709561957F4F0895A1E262
:1044D0001A2EAA1BBB1BFD010DC0AA1FBB1FEE1F7E
:1044E000FF1FA217B307E407F50720F0A21BB30BC9
:1044F000E40BF50B661F771F881F991F1A9469F745
:1045000060957095809590959B01AC01BD01CF01A0
:104510000895EE0FFF1F0590F491E02D0994AA1B5A
:10452000BB1B51E107C0AA1FBB1FA617B70710F09E
:10453000A61BB70B881F991F5A95A9F780959095D0
:10454000BC01CD0108950F931F93CF93DF93823069
:10455000910510F482E090E0E0916006F091610630
:1045600030E020E0B0E0A0E0309799F4211531056B
:1045700009F44AC0281B390B24303105D8F58A814B
:104580009B816115710589F1FB0193838283FE0193
:1045900011C0408151810281138148175907E0F011
:1045A0004817590799F4109761F012960C931297D7
:1045B00013961C933296CF01DF91CF911F910F91EB
:1045C00008950093600610936106F4CF211531051C
:1045D00051F04217530738F0A901DB019A01BD01E0
:1045E000DF01F801C1CFEF01F9CF9093610680930D
:1045F0006006CDCFFE01E20FF31F8193919322500D
:10460000310939832883D7CF20915E0630915F0628
:10461000232B41F42091DC013091DD0130935F06C2
:1046200020935E062091DA013091DB0121153105DE
:1046300041F42DB73EB74091DE015091DF01241BBC
:10464000350BE0915E06F0915F06E217F307A0F4E8
:104650002E1B3F0B2817390778F0AC014E5F5F4FD8
:104660002417350748F04E0F5F1F50935F064093A5
:104670005E06819391939FCFF0E0E0E09CCFCF93D3
:10468000DF930097E9F0FC01329713821282A09128
:104690006006B0916106ED0130E020E01097A1F4D2
:1046A00020813181820F931F20915E0630915F0639
:1046B0002817390709F061C0F0935F06E0935E06A2
:1046C000DF91CF910895EA01CE17DF07E8F54A811F
:1046D0005B819E0141155105B1F7E901FB83EA8336
:1046E00049915991C40FD51FEC17FD0761F48081E2
:1046F00091810296840F951FE901998388838281B5
:1047000093819B838A83F0E0E0E012968D919C91E7
:1047100013970097B9F52D913C911197CD01029611
:10472000820F931F20915E0630915F06281739078C
:1047300039F6309751F51092610610926006B093E9
:104740005F06A0935E06BCCFD383C28340815181B4
:10475000840F951FC817D90761F44E5F5F4F88819A
:104760009981480F591F518340838A819B8193838C
:1047700082832115310509F0B0CFF0936106E093F3
:1047800060069ECFFD01DC01C0CF13821282D7CF1D
:10479000B0E0A0E0EEECF3E20C941E228C01009756
:1047A00051F4CB010E94A3228C01C801CDB7DEB722
:1047B000E0E10C943A22FC01E60FF71F9C01225025
:1047C0003109E217F30708F49DC0D901CD91DC91BE
:1047D0001197C617D70798F0C530D10530F3CE0131
:1047E00004978617970708F3C61BD70B2297C19328
:1047F000D1936D937C93CF010E943F23D6CF5B0171
:10480000AC1ABD0A4C018C0E9D1EA0916006B091A1
:104810006106512C412CF12CE12C109731F580913F
:104820005E0690915F068815990509F05CC04616F2
:10483000570608F058C08091DA019091DB0100978B
:1048400041F48DB79EB74091DE015091DF01841B8A
:10485000950BE817F90708F055C0F0935F06E09351
:104860005E06F90171836083A0CF8D919C911197B1
:1048700012966C90129713967C901397A815B90511
:1048800059F56C0142E0C40ED11CCA14DB0420F1BE
:10489000AC014A195B09DA011296159780F0628221
:1048A000738251834083D9016D937C93E114F104A9
:1048B00071F0D7011396FC93EE93129776CF229660
:1048C0008C0F9D1FF90191838083F301EFCFF0934B
:1048D0006106E093600669CF4816590608F42C017A
:1048E0007D01D3019ACFCB010E94A3227C010097C6
:1048F00049F0AE01B8010E949F24C8010E943F23E5
:10490000870153CF10E000E050CF81E090E0F894B1
:104910000C9469279111089581568A5108F48052A8
:1049200085580895FB01DC0104C08D910190801928
:1049300021F441505040C8F7881B990B0895FB01A2
:10494000DC0102C001900D9241505040D8F708950B
:10495000FB01DC010D900020E9F7119701900D9209
:104960000020E1F70895FB01DC0101900D92002089
:10497000E1F70895FB01DC014150504030F08D918A
:104980000190801919F40020B9F7881B990B08953C
:10499000AEE0B0E0EEECF4E20C942A220D891E8920
:1049A00086E08C831A8309838FEF9FE79E838D8334
:1049B000AE01475E5F4F6F89788DCE0101960E94F0
:1049C000EB242F813885020F131FF80110822E96D9
:1049D000E4E00C944622ABE0B0E0E1EFF4E20C94AA
:1049E0001C227C013B018A01FC0117821682838113
:1049F00081FFC8C1CE0101965C01F7019381F301EB
:104A000093FD859193FF81913F01882309F453C160
:104A1000853239F493FD859193FF81913F01853271
:104A200029F4B70190E00E94DB26E7CF912C212CDE
:104A3000312CFFE1F31538F08B3211F190F4803214
:104A400009F1833229F137FC3CC020ED280F2A30D0
:104A500050F536FE20C08AE0989E200D1124922E3B
:104A600006C08D3291F0803371F7689430F8F3010D
:104A700093FD859193FF81913F018111DACF21C090
:104A8000689431F8689432F8F2CF689433F8EFCF35
:104A9000689434F8ECCFEAE02E9E200D1124222EEB
:104AA000689435F8E4CF8E3229F436FC04C168945A
:104AB00036F8DDCF8C3619F4689437F8D8CF8836BD
:104AC000B1F2982F9F7D95549330E0F08336A1F199
:104AD0008337C1F1833509F063C02801F2E04F0E3E
:104AE000511CF801C080D180692D70E036FC02C0F5
:104AF0006FEF7FEFC6010E94C5264C01689437F81E
:104B000082010AC00C5F1F4FFFE3F983882483945E
:104B1000912C6501E89437F833FE2DC0522C811496
:104B2000910471F5552009F468CFB70180E290E057
:104B30000E94DB265A94F6CFF801808189830E5FAC
:104B40001F4FE4CF2801F2E04F0E511CF801C08046
:104B5000D180692D70E036FC02C06FEF7FEFC60197
:104B60000E94D0264C018201D5CFB70180E290E0AF
:104B70000E94DB262A942814190409F0B0F7CECF3E
:104B8000F60137FC859137FE81916F01B70190E006
:104B90000E94DB2651105A94F1E08F1A9108BFCF82
:104BA000843619F0893609F077C0F80137FE6BC0FA
:104BB00060817181828193810C5F1F4FF32DFF769D
:104BC0003F2E97FF09C090958095709561957F4F16
:104BD0008F4F9F4F689437F82AE030E0A5010E947C
:104BE0000B27C82ECA188C2C432C36FE0CC0E89418
:104BF00040F8C91440F434FE05C032FC03C0F32D64
:104C0000FE7E4F2E892C44FE95C0FE01EC0DF11D59
:104C10008081803309F087C0242D297E422E842D87
:104C20008870582E43FC95C040FE8FC09C2C821487
:104C300018F42C0C922C981844FE91C0B70180E314
:104C400090E00E94DB2642FE09C088E790E041FE2A
:104C500002C088E590E0B7010E94DB26C91408F481
:104C60008AC0CA94D12C9FEFC91AD90ACA0CDB1C7E
:104C7000F60182916F01B70190E00E94DB26AC142F
:104C8000BD04B1F74FCF60817181072E000C880BF6
:104C9000990B0E5F1F4F92CFD32CE894D4F82AE0E3
:104CA00030E0853739F1232D297FD22E8F3601F15F
:104CB00048F48835A9F0F701868197812B96E2E1C7
:104CC0000C943822803749F08837A9F7D4FE02C007
:104CD0006894D2F820E130E00DC06894D4F8F6CFA3
:104CE00034FE03C0822F8660D82E20E132E002C05D
:104CF00028E030E0F801D7FE0FC060817181828129
:104D000093810C5F1F4FA5010E940B27C82ECA1864
:104D10003D2CE89437F867CF6081718190E080E0A6
:104D20000E5F1F4FF0CF42FC02C0839478CF839474
:104D3000839475CF842D867809F471CFF6CFB701AF
:104D400080E290E00E94DB2683948214C0F3512C11
:104D500073CF522C5818821408F46ECFF8CF842DDC
:104D6000867809F47BCF8BE241FE80E247FC8DE23E
:104D7000B70190E071CFB70180E390E00E94DB269D
:104D80009A946CCF8FEF9FEF99CFFC010590615003
:104D900070400110D8F7809590958E0F9F1F089551
:104DA000FC016150704001900110D8F780959095FA
:104DB0008E0F9F1F08950F931F93CF93DF93182F8C
:104DC000092FEB018B8181FD09C01FEF0FEF812FB0
:104DD000902FDF91CF911F910F91089582FF14C002
:104DE0002E813F818C819D81281739073CF4E88111
:104DF000F981CF0101969983888310838E819F81E9
:104E000001969F838E83E3CFE885F985812F0995ED
:104E1000892BA1F3DACFFA01AA27283051F12031EA
:104E200081F1E8946F936E7F6E5F7F4F8F4F9F4F3E
:104E3000AF4FB1E03ED0B4E03CD0670F781F891F80
:104E40009A1FA11D680F791F8A1F911DA11D6A0F4E
:104E5000711D811D911DA11D20D009F468943F9101
:104E60002AE0269F11243019305D3193DEF6CF0100
:104E70000895462F4770405D4193B3E00FD0C9F7C6
:104E8000F6CF462F4F70405D4A3318F0495D31FD33
:104E90004052419302D0A9F7EACFB4E0A695979586
:104EA000879577956795BA95C9F70097610571055C
:104EB00008959B01AC010A2E0694579547953795A6
:104EC0002795BA95C9F7620F731F841F951FA01D00
:104ED000089514E0CCE6D4E004C0FE010E948922CB
:0C4EE0002196CD36D107C9F7F894FFCF1A
:104EEC00040005000600070000000100020003009A
:104EFC000100534400000000000000004148000085
:104F0C000000000000000000000000000000000095
:104F1C000000000000000000000000000000000085
:104F2C00000000000000426F6F74696E67000000A3
:104F3C00000000000000426F6F74696E6700000093
:104F4C000000000000000000000000000000000055
:104F5C000000000000005363616E2041726D000080
:104F6C0000000000000054696D656F75740000004E
:104F7C000000000000004163636573732047726199
:104F8C006E746564000050726573656E7420546FA6
:104F9C00204C6F636B0050726573656E7420746F78
:104FAC00204F70656E000000000000000000000043
:104FBC000000000000000100FFFF000062068000FE
:104FCC006B006C006D00FF00C8001E000000FF00AD
:104FDC000000FF00FF00FF0000000000FF00FF00CA
:104FEC0000000000000000000000000000000000B5
:104FFC00000000000200000000000200020000009F
:10500C000000000053072607060BFC061F070C07C1
:10501C00FD06000000004B0AAB09D809980A090AE2
:10502C00E709FB09000000007305AB09060B7809C2
:10503C00CB0A0D0A007374616765496E6465783A32
:10504C00002569006D65737361676520746F6F204F
:10505C006C6F6E6721210025640021466C61675FCF
:10506C000021536574740021426567696E002152FA
:10507C004649445F00214C45445F0021506F6C6CE5
:10508C00002150757368002141434B0021454F4668
:10509C0000214B65795000214865616465720021DF
:1050AC00536572766F5F00214B6579436D64002107
:1050BC004F6C6564480052656C617920005744540C
:1050CC0020656E6461626C65640048616E646C6935
:1050DC006E6720707700646F6F72206973206E6F3B
:1050EC007420636C6F73656400436F7272656374D4
:1050FC002050570053746167652069733A00436C04
:0C510C0065616E204169726C6F636B007E
:00000001FF
